:020000040800F2
:1000000008070020810200084318000809160008AC
:10001000411800088D03000835200008000000008A
:10002000000000000000000000000000C101000806
:10003000E9040008000000001D0200087D18000807
:100040009B0200089B0200089B0200089B0200081C
:100050009B0200089B0200089B0200089B0200080C
:100060009B0200089B0200089B0200089B020008FC
:100070009B0200089B0200089B0200089B020008EC
:100080009B0200089B0200089B0200089B020008DC
:100090009B0200089B0200089B0200089B020008CC
:1000A0009B0200089B0200089B0200089B020008BC
:1000B0009D1900089B0200089B0200089B02000893
:1000C0009B0200089B0200089B0200089B0200089C
:1000D0009B020008292000089B0200089B020008E0
:1000E0009B0200089B0200089B0200089B0200087C
:1000F0009B0200089B0200089B0200089B0200086C
:100100009B0200089B0200089B0200089B0200085B
:100110009B0200089B0200089B0200089B0200084B
:100120009B0200089B0200089B0200089B0200083B
:100130009B0200089B0200089B0200089B0200082B
:100140009B0200089B0200089B0200089B0200081B
:100150009B0200089B0200089B0200089B0200080B
:100160009B0200089B0200089B0200089B020008FB
:100170009B0200089B0200089B0200080000000090
:100180009B0200089B0200089B0200089B020008DB
:100190009B0200089B0200089B0200089B020008CB
:1001A00000000000000000009B020008DFF80CD0F7
:1001B00000F0DAF800480047752000080807002022
:1001C0002C4B19680868B0E8F04F80F30988BFF33A
:1001D0006F8F4FF0000080F311887047000000001F
:1001E00008480068006880F308884FF0000080F33A
:1001F000148862B661B6BFF34F8FBFF36F8F00DF15
:1002000000BF00BF08ED00E0DFF80C00016841F41A
:1002100070010160704700BF88ED00E0EFF30980D6
:10022000BFF36F8F134B1A681EF0100F08BF20ED3D
:10023000108A20E9F04F106009B44FF0500080F3AD
:100240001188BFF34F8FBFF36F8F01F087FF4FF01F
:10025000000080F3118809BC19680868B0E8F04F05
:100260001EF0100F08BFB0EC108A80F30988BFF3AE
:100270006F8F704720000020EFF30580704700006B
:100280000648804706480047FEE7FEE7FEE7FEE730
:10029000FEE7FEE7FEE7FEE7FEE7FEE74919000896
:1002A000AD0100082DE9F05F0546002092469B460F
:1002B00088460646814640241BE02846414647467C
:1002C000224600F041F853465A46C01A914110D3D5
:1002D00011461846224600F028F82D1A67EB01084F
:1002E0004F4622460120002100F01FF817EB0009BD
:1002F0004E41201EA4F10104DFDC484631462A4667
:100300004346BDE8F09FD2B201E000F8012B491E40
:10031000FBD270470022F6E710B513460A460446A2
:100320001946FFF7F0FF204610BD202A04DB203AD3
:1003300000FA02F1002070479140C2F1200320FA38
:1003400003F3194390407047202A04DB203A21FA36
:1003500002F00021704721FA02F3D040C2F12002DE
:100360009140084319467047064C074D06E0E06887
:1003700040F0010394E8070098471034AC42F6D3EC
:10038000FFF718FFE822000808230008FEE7000036
:1003900010B50A88C2F30A02A2F5806202804A7888
:1003A0008B78D20842EA4312C2F30A02A2F58062B5
:1003B00042808A78CB78920942EA83020B7942EA3A
:1003C0008322C2F30A02A2F5806282800A794B7905
:1003D000520842EAC312C2F30A02A2F58062C28046
:1003E0004A79920902724A79C2F301124272CA88AA
:1003F00042810A8982814A89C2810A7B02744A7BCE
:100400004274C989418200F0F1F90B4C20606168A7
:10041000401AB0F5FA7F06D94FF40061074800F0A2
:10042000D9F9206860602068A0600122BDE8104012
:100430008021034800F0D5B91400002000100240CC
:100440000018024001681823CAB2103AB2FBF3F256
:10045000054B6FF30901032A9B5CC36500D9091D95
:100460008165084670470000C822000810B50146A3
:1004700000208B698A6A4FF0C07453B1B3F5005FF6
:1004800015D072B1012A0CD0022A0AD0032A09D150
:1004900004E01AB1012A06D0022A03D1C96AC901AF
:1004A00000D5012010BDC96AA142FAD010BD002AB2
:1004B000F7D0012AF2D0022AF3D0032AF3D010BDDC
:1004C00030B50468256825F48025256004686360DC
:1004D0008368402B036803D099600068C26030BD18
:1004E0009A600068C16030BD704770472DE9F041E7
:1004F000044600F07BF906465CB1002584F83450D0
:10050000022084F835002068016821F001010160B3
:100510000DE00120BDE8F08100F068F9801B05289E
:1005200005D920206065032084F83500F2E72068B3
:100530000068C007F0D12268116820480140D4E962
:1005400001031843D4E9033633431843636918435E
:10055000A3691843E3691843236A18430843616A8F
:10056000042903D1D4E90B13194308431060206810
:100570004069666A20F0070130460E4301270428CF
:100580000CD1A06A0643E06A40B12046FFF76EFF37
:1005900020B14020606584F83570BAE72068466174
:1005A0002046FFF74FFF94F85C203F219140816087
:1005B000656584F835700020ACE700003F8010F0DE
:1005C00070B5044690F83400002501280CD00120B5
:1005D00084F8340094F835600020012E06D084F8A9
:1005E00034000225284670BD022070BD022684F822
:1005F000356060652046FFF763FF2068016841F0C1
:1006000001010160EEE700002DE9F84FDFF890B13D
:1006100000224FF001084FF0030A4FF00F090BF1D1
:10062000040E00BF0B6808FA02F42340A3426ED107
:100630004D68022D01D0122D0ED1D50800EB850C8E
:10064000DCF820505607F70E09FA07F6B5430E6995
:10065000BE402E43CCF82060066855000F790AFA98
:1006600005FC07F0030726EA0C06AF403743076096
:100670004E68012E05D0022E03D0112E01D0122E6D
:100680000ED18768CE6827EA0C07AE403E438660ED
:100690004668A6430C79C4F3001494403443446084
:1006A000C4688E6824EA0C04AE402643C6604C68D9
:1006B000E4006FD53B4C256845F4804525602468EF
:1006C00022F0030504F480440094374C2E19D6F828
:1006D000084895072F0F09FA07F5AC43334DA84298
:1006E00001D100252EE0324DA84201D1012529E09B
:1006F000304DA84201D1022524E02F4DA84201D15E
:1007000003251FE02D4DA84202D104251AE041E047
:100710002B4DA84201D1052514E02A4DA84201D154
:1007200006250FE0284DA84201D107250AE0274DF4
:10073000A84201D1082505E0254DA84201D109258F
:1007400000E00A25BD402543C6F80858DBF8004004
:100750005D464E689C43F60300D51C432C60DEF8D2
:10076000004075464E689C43B60300D51C432C6080
:100770000B4D08352C684E689C43F60200D51C438F
:100780002C60074D0C352C684E689C43B60200D592
:100790001C432C60521C102AFFF444AFBDE8F88FB4
:1007A000003C01404438024000300140000002405B
:1007B0000004024000080240000C02400010024009
:1007C0000014024000180240001C024000200240B9
:1007D00000240240426931EA020200D10904816129
:1007E00070470AB1816170470904FBE701488068DE
:1007F000704700000400002002488168027811441C
:1008000081607047040000200B4810B5016841F476
:1008100000710160016841F480610160016841F488
:1008200080710160032000F06FF8002000F006F8EE
:1008300000F024F8002010BD003C024070B50D4DC2
:1008400004464FF47A712878B1FBF0F00A49096840
:10085000B1FBF0F000F0F4FA48B9102C07D20022F6
:100860002146501E00F030F800206C6070BD012061
:1008700070BD000004000020100000200A4808B5E8
:10088000016841F480410160006800F480400090FC
:100890000548001F016841F080510160006800F0C8
:1008A0008050009008BD000044380240002809DB59
:1008B00000F01F02012191404009800000F1E0207A
:1008C000C0F8001170470000F0B40E4B1B680C46D6
:1008D000C3F30223C3F10705042D00D90425191D14
:1008E000072901D2002300E0DB1E012606FA05F1EC
:1008F000491E214099409E40761E16403143F0BC6F
:1009000001F099BB0CED00E0064900F00702086811
:100910004FF6FF03184040EA0220034A10430860E4
:10092000704700000CED00E00000FA052DE9F047EB
:100930000E46050065D0DFF81481D8F80000F7B244
:1009400000F00F00B04207D288F80070D8F800001D
:1009500000F00F00B04254D128683D4C810712D5F9
:10096000400703D5206840F4E05020602878000755
:1009700003D5206840F4604020602068A96820F01A
:10098000F000084320602878C0072DD030496868FF
:100990000839012812D0022813D0032811D0096881
:1009A000890700292DDA216821F003010143216024
:1009B000FFF71CFF814641F2883A0EE0096889037F
:1009C000EFE709688901ECE7FFF710FFA0EB0901E9
:1009D000514502D90320BDE8F0872068696800F01E
:1009E0000C00B0EB810FEFD1D8F80010404601F0B9
:1009F0000F01B14207D90770006800F00F00B04244
:100A000001D00120E7E72878400705D52068E9688C
:100A100020F4E050084320602878000706D52068BD
:100A2000296920F4604040EAC100206000F03CF8F1
:100A30002168084AC1F30311515CC84006490860A7
:100A40000020FFF7FBFE0020C5E70000003C02404D
:100A500008380240D0220008100000200148006839
:100A6000704700001000002004480549006809682C
:100A7000044AC1F38221515CC84070471000002035
:100A800008380240E0220008044805490068096867
:100A9000044AC1F34231515CC84070471000002045
:100AA00008380240E0220008154810B5006810F030
:100AB0000C02144813D01449042A0FD0082A0ED16E
:100AC0000F4C241F2268236802F03F025B0207D507
:100AD0002068C0F38810A0FB010106E0084610BDA5
:100AE0002168C1F38811A1FB00010023FFF7DAFBA5
:100AF0002168C1F30141491C4900B0FBF1F010BD70
:100B0000083802400024F400001BB7002DE9F84F1C
:100B1000050076D02878DFF8F8B2BE4CC00749D07F
:100B2000DBF800105846C1F38101012908D00068A4
:100B3000C0F3810002280AD1201D0068400206D5BA
:100B40002068800336D568680028E2D032E0686803
:100B5000B0F5803F10D0B0F5A02F206810D020F461
:100B600080302060206820F4802020606868A0B178
:100B7000FFF73CFE06460CE0206840F48030F4E7C6
:100B800040F480202060F7E7FFF730FE801B6428E8
:100B900073D820688003F7D50CE0FFF727FE0646E0
:100BA00005E000BFFFF722FE801B6428F0D8206814
:100BB0008003F7D42878DFF8608280074FF00009BF
:100BC0003ED5DBF80010584611F00C0F09D0006834
:100BD000C0F3810002280BD18D48001F006840023D
:100BE00006D42068800715D5E868012809D111E0EE
:100BF000E868B8B10120C8F80000FFF7F7FD064625
:100C000005E002E1FFF7F2FD801B0228C0D8206852
:100C10008007F7D52068296920F0F80040EAC10074
:100C200020600DE0C8F80090FFF7E0FD064604E004
:100C3000FFF7DCFD801B02281FD820688007F7D44F
:100C40002878000722D5724E744869696C3671B1F4
:100C500001210160FFF7CAFD074604E0FFF7C6FD6A
:100C6000C01B022809D830688007F7D50EE0C0F80D
:100C70000090FFF7BBFD074605E083E0FFF7B6FDF8
:100C8000C01B02287ED830688007F7D42878400738
:100C900068D5DFF87CA100270AF1380ADAF80000ED
:100CA000C0000BD4DAF8001041F08051CAF80010EF
:100CB000DAF80000012700F080500090584E3068AC
:100CC000C00510D4306840F480703060FFF78EFDAE
:100CD000009005E0FFF78AFD0099401A022851D8DC
:100CE0003068C005F6D54A4EA868683601280FD08E
:100CF0000528306810D020F001003060306820F006
:100D000004003060A868B8B1FFF770FD00900FE0F4
:100D1000306840F00100F4E740F004003060F7E78D
:100D2000FFF764FD0099411A41F28830814264D88E
:100D300030688007F4D50EE0FFF758FD009007E01B
:100D4000FFF754FD0099411A41F28830814254D88E
:100D500030688007F4D42FB1DAF8001021F0805108
:100D6000CAF80010A869C0B3DBF80010C1F3810114
:100D700002294AD00228484607D0C8F86000FFF789
:100D800035FD00E039E005463AE04746C8F8600026
:100D9000FFF72CFD064604E0FFF728FD801B022824
:100DA0002BD820688001F7D4D5E907010843A96A48
:100DB0001C4A490802EB01416A6A41EA8211084370
:100DC00095F82C1040EA01611148001F01600120D4
:100DD0003866FFF70BFD054605E014E0FFF706FD5A
:100DE000401B022809D820688001F7D50BE000BF1E
:100DF000FFF7FCFC401B022802D90320BDE8F88F56
:100E000020688001F4D40020F8E70120F6E7000014
:100E1000083802400038024000004742800E474236
:100E2000007000400000FFFF4FF0E0210428086937
:100E300003D020F004000861704740F00400FAE796
:100E400010B5401EB0F1807F01D3012010BD4FF0DE
:100E5000E02460610F21601701F0EDF80020A0612F
:100E600007202061002010BD7047704770B590F8D2
:100E70003C20012A19D0012400F83C4F0222427084
:100E800050F83C3C5A689D6822F070060A68496830
:100E9000324325F0800529435A6050F83C2C91607C
:100EA000447000210170084670BD022070BD10B56D
:100EB000040003D094F83D0010B107E0012010BDFC
:100EC000002084F83C00204600F00CF8022084F852
:100ED0003D00211D206800F079FD012084F83D00CF
:100EE000002010BD08B50068B0F1804F10D101227C
:100EF00011461C20FFF7E8FC1C20FFF7D7FC054833
:100F0000016841F001010160006800F001000090FB
:100F100008BD0000403802400168CA6842F0010282
:100F2000CA600068816801F00701062903D00168E2
:100F300041F0010101600020704770B5044690F84F
:100F40003C00012817D0012584F83C50022084F889
:100F50003D002068826822F0770222F47F4282609E
:100F60000868502830D00DDC20284DD005DC98B31F
:100F700010283BD148E0022070BD302844D04028E2
:100F800034D139E0602828D0702806D0B0F5805FD1
:100F90002CD0B0F5005F29D10AE0CB68D1E901215E
:100FA000206800F084FD2068816841F0770109E045
:100FB000CB68D1E90121206800F079FD20688168C3
:100FC00041F48041816011E0CA684968206800F0FE
:100FD00043FE5021206807E016E0CA68496820688F
:100FE00000F04BFE6021206800F06BFD84F83D505E
:100FF000002084F83C0070BDCA684968206800F091
:101000002BFE40212068EFE7226801461046EBE7FF
:10101000704770B50446006801694FF00005C94388
:10102000890715D4C168C943890711D4E91E016134
:1010300001202077206880698007204602D0FFF7D2
:10104000E7FF04E000F098F8204600F047F9257724
:1010500020680169C943490717D4C168C9434907D2
:1010600013D46FF0040101610220207720688069A9
:1010700010F4407F204602D0FFF7CAFF04E000F0E2
:101080007BF8204600F02AF9257720680169C943DA
:10109000090716D4C168C943090712D46FF00801C3
:1010A0000161042020772068C0698007204602D0B3
:1010B000FFF7AEFF04E000F05FF8204600F00EF905
:1010C000257720680169C943C90617D4C168C94397
:1010D000C90613D46FF01001016108202077206841
:1010E000C06910F4407F204602D0FFF791FF04E072
:1010F00000F042F8204600F0F1F8257720680169F9
:10110000C943C90708D1C168C943C90704D1891EA9
:101110000161204600F006F920680169C94309060B
:1011200009D4C168C943090605D46FF08001016183
:101130002046FFF799FE20680169C943490609D492
:10114000C168C943490605D46FF0400101612046DA
:1011500000F0E9F820680169C94389060BD4C16829
:10116000C943890607D46FF0200101612046BDE81C
:101170007040FFF77ABE70BD704770B5044690F8B6
:101180003C000D4601280DD0012684F83C60022069
:1011900084F83D0042B1042A18D0082A2AD00C2A2B
:1011A0004DD139E0022070BD206800F093FC20682A
:1011B000816941F0080181612068816921F00401A1
:1011C0008161206881692A69114311E0206800F07B
:1011D000B1FC2068816941F4006181612068816906
:1011E00021F480618161206881692A6941EA0221D4
:1011F000816124E0206800F0D3FC2068C16941F0DF
:101200000801C1612068C16921F00401C161206841
:10121000C1692A69114311E0206800F0F5FC2068DB
:10122000C16941F40061C1612068C16921F4806134
:10123000C1612068C1692A6941EA0221C16184F85B
:101240003D60002084F83C0070BD10B5040003D060
:1012500094F83D0010B107E0012010BD002084F893
:101260003C00204600F00CF8022084F83D00211DCF
:10127000206800F0ABFB012084F83D00002010BD89
:1012800010B586B0044614216846FFF743F81049AC
:101290002068884219D10F48026842F004020260B7
:1012A000006800F004000590206888420DD14FF4DA
:1012B0007040009002200121CDE901010321CDE918
:1012C000031069460448FFF79FF906B010BD0000FF
:1012D0000008004040380240000C02407047000007
:1012E00010B504460068012200F0D4FB0B492068C9
:1012F000884202D00A49884203D1416C41F400413E
:1013000041642068816801F00701062903D0016863
:1013100041F001010160002010BD0000000001400B
:10132000000401407047704730B401680A68D20673
:101330005ED50A684968416B304A096891420AD013
:101340002F4A914207D02D4A6032914203D02C4A55
:101350006032914201D1202222E0284B1833DA1466
:1013600099421DD0264B1833994219D0234B78331C
:10137000994215D0224B7833994211D01F4B9202DB
:10138000303399420CD01E4B3033994208D01B4B5E
:101390009033994204D01A4B9033994200D0920175
:1013A0000B6823F001030B60416B154B0968483350
:1013B000994202D91249091F05E0104BA8339942FE
:1013C00003D90F4908390A6008E00C4C0B4B48342C
:1013D000103BA14201D9DA6000E09A60426B818D36
:1013E00012685160416B09680A6842F001020A60A4
:1013F000816A30BC0348FEF7CBBF0000106002409A
:10140000106402402C02002070B5040004D094F84F
:101410003900002510B106E0012070BD84F8385075
:10142000204600F023F8242084F839002068C168A1
:1014300021F40051C160204600F06EFC2068016973
:1014400021F4904101612068416921F02A01416144
:101450002068C16841F40051C160E563202084F830
:10146000390084F83A00002070BD000070B586B0E5
:10147000064614216846FEF74DFF294C33680025C7
:10148000284902200122A34231D10B6843F0100306
:101490000B60096801F010010591C021CDE9001031
:1014A0000320CDE902200720049069461E48FFF77B
:1014B000ABF81F4C1D4820604FF00060C4E90105E7
:1014C0004014C4E903506561A561E56125622046C9
:1014D0006562FFF70BF87463022200212520A663E2
:1014E000FFF7F2F92520FFF7E1F906B070BD114CC6
:1014F000A342FAD10B6843F020030B600968CDE9E1
:10150000022001F0200105914FF48441CDE9001043
:101510000820049069460848FFF776F8E5E70000E0
:101520000010014044380240000402404064024080
:10153000C0010020001401400018024030B40368CC
:10154000DC6844F01004DC6030BC00F0A8BB2DE97E
:10155000F843044690F839001F4616460D462028E9
:1015600050D1A5B19EB194F8380001284AD001208D
:1015700084F838004FF00008C4F83C80212084F83B
:101580003900FFF733F9A6848146E68426E001207E
:10159000BDE8F883E08C401EE084A0684B46B0F5BF
:1015A000805F4FF000024FF080012046009703D08B
:1015B00000F008FDE8B90DE000F004FDC8B9288886
:1015C0002168C0F308004860206908B16D1C05E07F
:1015D000AD1C03E0216815F8010B4860E08C002881
:1015E000D8D14B46002240212046009700F0EAFC6B
:1015F00008B10320CCE7202084F8390084F8388033
:101600000020C5E70220C3E7FEE700000D4808B54B
:10161000016841F4800101600068002200F480004C
:10162000009011463A20FFF74FF93A20FFF73EF9B4
:10163000002211464520FFF747F9BDE80840452044
:10164000FFF734B93038024070B586B014216846CF
:10165000FEF760FE2A480024016841F08001016025
:10166000016801F080010591016841F040010160CD
:10167000016801F040010591016841F0100101602D
:10168000016801F010010591016841F00801016055
:10169000016801F008010591016841F00401016051
:1016A000016801F004010591016841F00201016047
:1016B000016801F002010591016841F0010101603A
:1016C0000068104E00F0010005900022862130468F
:1016D000FFF787F8862000900125CDE9015469467F
:1016E00030460394FEF790FFE8020090CDE90154E4
:1016F000694605480394FEF787FF06B070BD0000F9
:1017000030380240001802400010024010B586B088
:1017100000241348009401940294039404944FF01D
:101720008041059401605321C0E9011441F28731E1
:10173000C0E903148461FFF7BAFB4FF480500090B6
:1017400069460748FFF7F9FB049404A90448059487
:10175000FFF78CFB0248FFF7DFFB06B010BD00006F
:101760005C00002010B51F4888B01D49016053215E
:101770000024C0E9011444F61F61C0E90314846128
:10178000FFF763FD6020009042F20F70CDE9010485
:101790000022694613480494FFF7EFFC04226946CF
:1017A0001048FFF7EAFC082269460E48FFF7E5FCFF
:1017B0000C2269460B48FFF7E0FC00210948FFF7BF
:1017C0008FFD04210748FFF78BFD08210548FFF72F
:1017D00087FD0C210348FFF783FD08B010BD000012
:1017E000000800409C000020094808494FF480622E
:1017F00001600849416000218160C0E903120C22A8
:10180000C0E90521C161FFF7FFBD000000100140E4
:1018100040010020A08601000848074901604FF4FC
:10182000E1314160002181600C22C160C0E90412F5
:101830008161C161FFF7E8BD001401408001002013
:10184000FEE7704710B5FEF7DFFF00F023F8FFF763
:10185000FBFEFFF75BFFFFF785FFFFF7D7FEFFF704
:10186000C3FFFFF7D9FFBDE81040642201490248D9
:10187000FFF764BEDC0000204001002010B500F03E
:10188000B1FC012801D000F097FCBDE81040FEF744
:10189000B3BF000030B593B030216846FEF73AFD83
:1018A00014210CA8FEF736FD25480025016841F0FB
:1018B00080510160006800F080501190214801685B
:1018C00041F4404101600068022400F4404011905E
:1018D00001200090000401908001CDE9064006201F
:1018E0000890A820CDE9090404200B906846FFF772
:1018F0000DF908B1FEF7F9FD0CA90F2081E83100C0
:101900004FF4A0500F904FF48050109005210CA878
:10191000FFF70CF808B1FEF7E8FDFFF79FF84FF46A
:101920007A71B0FBF1F0FFF78BFA0420FFF77CFA35
:1019300000221146501EFEF7C7FF13B030BD000055
:1019400040380240007000401048016841F47001C6
:1019500001600F48016841F0010101600C4A00215B
:101960000832116002680B4B1A400260031D0A4ADC
:101970001A60026822F48022026005480C3001607F
:1019800002495806803908607047000088ED00E081
:1019900000380240FFFFF6FE1030002410B5084862
:1019A000FFF737FB074C2078C82801D2401C04E021
:1019B00006210548FEF70EFF0020207010BD000034
:1019C0005C0000200000002000180240F0B5026812
:1019D000254C264D264E274F274B4FF0804CA042DA
:1019E00009D0604507D0A84205D0B04203D0B84224
:1019F00001D0984204D122F0700E4A6842EA0E02E9
:101A0000A0421BD0604519D0A84217D0B04215D0D3
:101A1000B84213D0984211D0184DA8420ED0184D9C
:101A2000A8420BD0174DA84208D0174DA84205D0A8
:101A3000164DA84202D0164DA84203D122F440759B
:101A4000CA682A434D6922F080022A4302608A68EC
:101A5000C2620A688262A04201D0984201D109693B
:101A6000016301214161F0BD00000140000400401C
:101A700000080040000C004000040140004001400C
:101A8000004401400048014000180040001C004094
:101A90000020004010B501F01F030121046A9940A5
:101AA0008C430462016A9A401143016210BD10B573
:101AB000846842EA032224F47F440A43224382607A
:101AC00010BD826822F070020A4342F00701816073
:101AD00070470000F0B5026A22F001020262036A58
:101AE00042688469124E24F073050C682C4323F07D
:101AF00002058B682B430D4DA84201D0B04205D1A1
:101B000023F00807CB683B4323F00403A84201D02D
:101B1000B04205D14D6922F4407215438A692A43C7
:101B200042608461496841630362F0BD0000014086
:101B300000040140F0B5026A22F010020262026A5B
:101B4000436884690D6824F4E64444EA05248D68FA
:101B500022F0200242EA05120F4D104EA84201D099
:101B6000B04206D1CF6822F0800242EA071222F08A
:101B70004002A84201D0B04207D14D6923F440632E
:101B800043EA85038D6943EA8503436084614968BC
:101B900081630262F0BD00000000014000040140CA
:101BA000F0B5026A22F480720262026A4368C46974
:101BB00022F4007224F073050C68124E2C438D68D9
:101BC00042EA05220E4DA84201D0B04206D1CF68AC
:101BD00022F4006242EA072222F48062A84201D085
:101BE000B04207D14D6923F4405343EA05138D6990
:101BF00043EA05134360C4614968C1630262F0BDF2
:101C0000000001400004014030B5026A22F4805215
:101C10000262046A4268C3690D6823F4E64343EA3A
:101C200005238D6824F4005444EA0534084DA84285
:101C300002D0084DA84204D14D6922F4804242EA04
:101C400085124260C36149680164046230BD0000CE
:101C5000000001400004014010B5036A046A24F04A
:101C600001040462846924F0F00444EA021423F0BD
:101C70000A020A438461026210BD10B5036A23F0B0
:101C8000100303628369046A23F4704343EA023257
:101C900024F0A00343EA01118261016210BDF8B58E
:101CA000044690F83A00202833D179B372B394F8FF
:101CB000380001282DD0012084F83800A162A285C7
:101CC0000025E563222084F83A00606B1346056521
:101CD0000846666B216802463046091DFEF770FC17
:101CE000206801684168009184F83850C16841F467
:101CF0008071C1602068416941F001014161206843
:101D0000416941F0400141610020F8BDFFE7012039
:101D1000FBE70220F9E700002DE9F04104460068E6
:101D20000169E26821F44051114301612169A06811
:101D3000E26908436169114322680843D16849F2A6
:101D40000C6399430143D16020684169A26921F481
:101D5000407111434161E2696425B2F5004F974833
:101D6000974922684FF032083FD08A4201D0824220
:101D70007CD1FEF789FE00EBC00101EB0010616829
:101D80008900B0FBF1F6FEF77FFE00EBC00101EB2E
:101D9000001061688900B0FBF1F0B0FBF5F06FF066
:101DA0001801484306EB800108EB0110B0FBF5F089
:101DB00000F0F006FEF768FE00EBC00101EB00103A
:101DC00061688900B0FBF1F0B0FBF5F006EB00169E
:101DD000FEF75AFE00EBC00101EB001061688900BC
:101DE000B0FBF1F7FEF750FED2E08A4201D082420A
:101DF0003DD1FEF749FE00EBC00101EB0010616828
:101E00004900B0FBF1F0B0FBF5F00601FEF73CFE37
:101E100000EBC00101EB001061684900B0FBF1F775
:101E2000FEF732FE00EBC00101EB001061684900D3
:101E3000B0FBF1F0B0FBF5F06FF01801484307EB91
:101E4000800108EBC100B0FBF5F000F0F80006EBF4
:101E50004006FEF719FE00EBC00101EB00106168BF
:101E60004900B0FBF1F7FEF70FFE3CE055E0FEF74E
:101E7000FBFD00EBC00101EB001061684900B0FB05
:101E8000F1F0B0FBF5F00601FEF7EEFD00EBC0014E
:101E900001EB001061684900B0FBF1F7FEF7E4FDCB
:101EA00000EBC00101EB001061684900B0FBF1F0EC
:101EB000B0FBF5F06FF01801484307EB800108EB29
:101EC000C100B0FBF5F000F0F80006EB4006FEF7AD
:101ED000CBFD00EBC00101EB001061684900B0FBD5
:101EE000F1F7FEF7C1FD00EBC00101EB00106168E6
:101EF0004900B0FBF1F0B0FBF5F06FF0180148437A
:101F000007EB800108EBC100B0FBF5F000F0070023
:101F1000216830448860BDE8F081FEF7A5FD00EB44
:101F2000C00101EB001061688900B0FBF1F6FEF71B
:101F30009BFD00EBC00101EB001061688900B0FB64
:101F4000F1F0B0FBF5F06FF01801484306EB8001AB
:101F500008EB0110B0FBF5F000F0F006FEF784FD91
:101F600000EBC00101EB001061688900B0FBF1F0EB
:101F7000B0FBF5F006EB0016FEF776FD00EBC001B6
:101F800001EB001061688900B0FBF1F7FEF76CFD12
:101F900000EBC00101EB001061688900B0FBF1F0BB
:101FA000B0FBF5F06FF01801484307EB800108EB38
:101FB0000110B0FBF5F000F00F00A9E7001401409C
:101FC000001001402DE9F041984617460E460446A0
:101FD000069D1DE0681C1BD02DB1FEF707FCA0EB91
:101FE0000800A84214D92068C16821F4D071C160EA
:101FF0002068416921F001014161202084F8390005
:1020000084F83A00002084F838000320BDE8F0810D
:102010002068006836EA000004D00020B842D9D019
:102020000020F3E70120F9E70148FFF77DB9000040
:1020300040010020FEE70907090E002804DB00F13B
:10204000E02080F80014704700F00F0000F1E0205D
:1020500080F8141D704702E008C8121F08C1002A4A
:10206000FAD170477047002001E001C1121F002A19
:10207000FBD17047FFF7E6FB084D094C288820800C
:1020800068886080A888A080E888E080287A20811D
:10209000687A608100F020F8F0E700002C02002050
:1020A000200200200648416B096829B1416BC968CC
:1020B000C9684968816270474FF0FF31FAE7000054
:1020C0002000002001B50A23012269460148FFF7DC
:1020D0003EFA08BD8001002070B50320FFF7F2FF33
:1020E000FC20FFF7EFFF0C4D002400BF15F8140093
:1020F000FFF7E8FF35F81400C0F30720FFF7E2FF11
:10210000641CE4B2062CF1D3FC20FFF7DBFFBDE832
:1021100070400320FFF7D6BF20020020D0E9013233
:1021200001699A60D0E901235A604A68824201D16C
:1021300082684A60002202610868401E08600868E0
:10214000704742684A6093688B60936859609160F9
:1021500008610168491C0160704700001448016B68
:1021600011B10121C16170470021C1610169B1FA5A
:1021700081F1C1F11F0101EB81020E4951F82230BA
:102180006BB101EB820101F108034A6852684A60B1
:102190009A4201D152684A60D1680160704750206C
:1021A00080F31188BFF34F8FBFF36F8FFEE70000FE
:1021B000200000204002002010B5502080F311883C
:1021C000BFF34F8FBFF36F8F00F01AF818B10449B7
:1021D0004FF080500860002080F3118810BD00008F
:1021E00004ED00E00548416919B1006B18B1002009
:1021F0007047012070470220704700002000002037
:102200002DE9F0412E4C0027206B40B1A069401C05
:10221000A061E06900B101273846BDE8F081E668B9
:10222000761CE66013D1606B006838B1502080F3F3
:102230001188BFF34F8FBFF36F8FFEE7606BA16B09
:102240006163A063206A401C2062FFF72BFFA06A35
:10225000DFF87080864209D3606B006880B1606BE4
:10226000C068C568686886420DD2A0622068C06AEE
:1022700000EB800158F821000128CAD90127C8E7DE
:102280004FF0FF30F1E7281DFFF748FFA86A18B1AB
:1022900005F11800FFF742FFE86A01212269814039
:1022A0001143216100EB800108EB8100291DFFF73C
:1022B00048FFE86A2168C96A8842CDD30127CBE785
:1022C0002000002040020020000610160006101614
:1022D00000000000000000000102030406070809D6
:1022E0000000000001020304082300080000002091
:1022F0005C00000056200008642300085C000020F9
:10230000AC0600006620000800000000010000008C
:1023100010000000000000000024F4000000000095
:1023200000000000000000000000000000000000AD
:10233000000000000000000000000000000000009D
:10234000000000000000000000000000000000008D
:10235000000000000000000000000000000000007D
:042360000000000079
:04000005080001AD41
:00000001FF
