:020000040800F2
:10000000B83601208102000843200008E31D0008E3
:1000100041200008B10300087D2A0008000000000C
:10002000000000000000000000000000C101000806
:100030006F050008000000001D020008A52200084E
:100040009B0200089B0200089B0200089B0200081C
:100050009B0200089B0200089B0200089B0200080C
:100060009B0200089B0200089B0200089B020008FC
:100070009B0200089B0200089B0200089B020008EC
:100080009B0200089B0200089B020008C1030008B5
:10009000B50300089B0200089B0200089B020008B1
:1000A0009B0200089B0200089B0200089B020008BC
:1000B000C52300089B0200089B0200089B02000861
:1000C0009B0200089B0200089B0200089B0200089C
:1000D0009B020008712A00089B0200089B0200088E
:1000E0009B0200089B0200089B0200089B0200087C
:1000F0009B0200089B0200089B0200089B0200086C
:100100009B0200089B0200089B0200089B0200085B
:100110009B0200089B0200089B0200089B0200084B
:100120009B0200089B0200089B0200089B0200083B
:100130009B0200089B0200089B0200089B0200082B
:100140009B0200089B0200089B0200089B0200081B
:100150009B0200089B0200089B0200089B0200080B
:100160009B0200089B0200089B0200089B020008FB
:100170009B0200089B0200089B0200080000000090
:100180009B0200089B0200089B0200089B020008DB
:100190009B0200089B0200089B0200089B020008CB
:1001A00000000000000000009B020008DFF80CD0F7
:1001B00000F0ECF800480047D52B0008B8360120C5
:1001C0002C4B19680868B0E8F04F80F30988BFF33A
:1001D0006F8F4FF0000080F311887047000000001F
:1001E00008480068006880F308884FF0000080F33A
:1001F000148862B661B6BFF34F8FBFF36F8F00DF15
:1002000000BF00BF08ED00E0DFF80C00016841F41A
:1002100070010160704700BF88ED00E0EFF30980D6
:10022000BFF36F8F134B1A681EF0100F08BF20ED3D
:10023000108A20E9F04F106009B44FF0200080F3DD
:100240001188BFF34F8FBFF36F8F03F0D3FC4FF0D4
:10025000000080F3118809BC19680868B0E8F04F05
:100260001EF0100F08BFB0EC108A80F30988BFF3AE
:100270006F8F704758000020EFF305807047000033
:100280000648804706480047FEE7FEE7FEE7FEE730
:10029000FEE7FEE7FEE7FEE7FEE7FEE77123000864
:1002A000AD0100082DE9F05F0546002092469B460F
:1002B00088460646814640241BE02846414647467C
:1002C000224600F053F853465A46C01A914110D3C3
:1002D00011461846224600F03AF82D1A67EB01083D
:1002E0004F4622460120002100F031F817EB0009AB
:1002F0004E41201EA4F10104DFDC484631462A4667
:100300004346BDE8F09F40EA01039B0703D009E0A4
:1003100008C9121F08C0042AFAD203E011F8013BF1
:1003200000F8013B521EF9D27047D2B201E000F84A
:10033000012B491EFBD270470022F6E710B5134689
:100340000A4604461946FFF7F0FF204610BD202A52
:1003500004DB203A00FA02F1002070479140C2F11C
:10036000200320FA03F3194390407047202A04DB4E
:10037000203A21FA02F00021704721FA02F3D0401E
:10038000C2F120029140084319467047064C074DC0
:1003900006E0E06840F0010394E807009847103455
:1003A000AC42F6D3FFF706FFDC480008FC48000823
:1003B000FEE70000014800F07BBA0000A002002028
:1003C000014800F075BA0000A002002010B50A78BC
:1003D0004B7842EA0322C2F30A02A2F5806202804D
:1003E0004A788B78D20842EA4312C2F30A02A2F595
:1003F000806242808A78CB78920942EA83020B7944
:1004000042EA8322C2F30A02A2F5806282800A795C
:100410004B79520842EAC312C2F30A02A2F5806283
:10042000C2804A79920902724A79C2F30112427279
:100430008A79CB7942EA032242810A7A4B7A42EAEC
:10044000032282818A7ACB7A42EA0322C2810A7B22
:1004500002744A7B42748A7BC97B42EA0121418251
:1004600000F010FE0B4C20606168401AB0F5FA7F76
:1004700006D94FF40061084800F0F4FD2068606080
:100480002068A0600122BDE810408021034800F0F0
:10049000F2BD00002C0000200010024000180240B5
:1004A0000168CAB2103A1823B2FBF3F2064B9B5C08
:1004B000C3656FF30901032A02D9091D816500E0B4
:1004C0008165806D70470000BC48000810B501468A
:1004D00000208A6A8B694FF0C074002B0ED0B3F5F0
:1004E000005F1AD062B3012A2AD0022A28D0032A38
:1004F00003D1C96AC90100D5012010BD1AB1012A72
:1005000006D0022AF9D1C96AC901F6D5012010BD69
:10051000C96AA142FBD1012010BD52B1012A0AD003
:10052000022A06D0032AF7D1C96AA142F4D10120D8
:1005300010BD012010BDC96AC901FBD5012010BD45
:10054000012010BD30B50468256825F4802525609C
:10055000046863608368402B04D003689960006876
:10056000C26030BD03689A600068C16030BD7047EA
:10057000704790F82020012A07D0022A05D0416A4E
:1005800041F48021416201207047006842690A43BA
:10059000426100207047F0B590F820500468A468CC
:1005A000012D07D0022D05D0416A41F4802141621E
:1005B0000120F0BD04F0806504F00066354301D1F0
:1005C000E5005BD5C4F30164022C05D9416A41F40E
:1005D000000141620120F0BD0125A5401D608B682E
:1005E0004FF4C0759BB1CE6805EB041733434E68DA
:1005F00043EAC6030668F3514FF4C273076803EB7E
:1006000004130E69FE50097D012909D00DE00E8802
:10061000CB6805EB041743EA46530668F351EBE752
:100620000168CE5846F48076CE501179D379567948
:1006300041EA036193791B0443EA062319434FF40B
:10064000C676036806EB041699511178D37841EA0F
:100650000361937852781B0443EA022211434FF45A
:10066000C473026803EB0413D150006805EB041156
:10067000425842F0010242500020F0BD416A41F46C
:10068000001141620120F0BD10B590F82020012A30
:1006900007D0022A05D0416A41F48021416201203D
:1006A00010BD3C4800F50070026842F00102026093
:1006B000026822F47C52026002684B6A42EA03221A
:1006C00002600A7D02F01F0301229A40C36993432E
:1006D000C361A0F50070CB69B3B9D0F80C32934375
:1006E000C0F80C328C894B6864F31F434C6900EBF3
:1006F000C404C4F840320C890B6864F31F434C698E
:1007000000EBC404C4F84432CB69012B16D1D0F8F5
:100710000C321343C0F80C320C884B6864F31F434F
:100720004C6900EBC404C4F840320C89CB6864F314
:100730001F434C6900EBC404C4F844328B697BB19D
:10074000D0F804321343C0F804320B6973B1D0F807
:1007500014321343C0F81432096A01290CD010E096
:10076000D0F804329343C0F80432EEE7D0F81432E4
:100770009343C0F81432EFE7D0F81C121143C0F8CD
:100780001C12D0F8001221F00101C0F80012002064
:1007900010BD00000064004003480068416941F05A
:1007A0000201416170470000A002002030B590F8BE
:1007B0002040012C07D0022C05D0416A41F4802151
:1007C0004162012030BD21B104682469A4075ED0D4
:1007D00003E00468E468A40753D04FF4D8740568B4
:1007E00004EB01142D5905F004059560002D54D03B
:1007F00005682D59ED08556005682C59C4F340046F
:10080000D4604FF4DA74056804EB01142D5905F037
:100810000F05156105682D59C5F307259561056814
:100820002C59240C54614FF4DC72046802EB011261
:10083000A4581C700468A458240A5C700468A45866
:10084000240C9C700468A258120EDA704FF4DE7209
:10085000046802EB0112A4581C710468A458240A0D
:100860005C710468A458240C9C710468A258120E90
:10087000DA71B9B10068016941F02001016100201D
:1008800030BD416A41F400114162012030BD416A2E
:1008900041F400114162012030BD05682D596D0DF4
:1008A0001560A9E70068C16841F02001C160E6E772
:1008B0002DE9F05F0546002428684669D0F80490C9
:1008C0008768D0F80CA0D0F810B0D0F81880F107E5
:1008D00048D0F90714D001218160B80703D5284614
:1008E00000F03CFA0CE0780702D54FF4006407E012
:1008F000380702D54FF4805402E0284600F02DFA64
:10090000F80516D529684FF480708860B80503D5BE
:10091000284600F025FA0CE0780502D544F400548E
:1009200007E0380502D544F4804402E0284600F090
:1009300016FAF80316D529684FF480308860B8039A
:1009400003D5284600F00EFA0CE0780302D544F4F3
:10095000004407E0380302D544F4803402E028461E
:1009600000F0FFF9300707D55FEACA6004D544F408
:10097000007429681020C86070074FF0080707D579
:100980005FEA0A7004D52868C760284600F072F94B
:10099000B00706D52868C068800702D0284600F056
:1009A0006BF9700607D55FEACB6004D544F4806428
:1009B000296810200861B00607D55FEA0B7004D5DE
:1009C00028680761284600F099F9F00606D52868DE
:1009D0000069800702D0284600F091F9B00308D5DD
:1009E0005FEAC96005D5296810204860284600F0F4
:1009F00087F9F00307D55FEA097004D528684760D6
:100A0000284600F0B0F9300446D55FEA497040D579
:100A1000F00504D55FEAC87001D044F00104B005C8
:100A200004D55FEA887001D544F00204700504D54E
:100A30005FEA487001D544F00404300529D518F068
:100A4000700F26D008F07000402815D006DC102862
:100A500009D020280AD0302816D10AE050280ED01C
:100A6000602811D10EE044F008040DE044F01004B9
:100A70000AE044F0200407E044F0400404E044F0BD
:100A8000800401E044F480742868816921F07001D9
:100A90008161296804204860002C05D0686A2043E1
:100AA00068622846FFF778FEBDE8F09F70B50446FF
:100AB000002C03D094F8200010B104E0012070BD98
:100AC000204600F09DF82068016821F002010160D5
:100AD00000F0D8FA054605260CE000F0D3FA401BDA
:100AE0000A2807D9606A40F40030606284F8206008
:100AF000012070BD206840688007EED4206801683E
:100B000041F00101016000F0BDFA05460CE000F083
:100B1000B9FA401B0A2807D9606A40F400306062C5
:100B200084F82060012070BD20684068C007EED0C6
:100B3000207E01283FD02068016821F080010160FB
:100B4000607E01283DD02068016821F040010160ED
:100B5000A07E01283BD02068016821F020010160BF
:100B6000E07E012839D02068016841F01001016061
:100B7000207F012837D02068016821F0080101603A
:100B8000607F012835D02068016821F004010160F0
:100B9000D4E902010843D4E904121143084361680F
:100BA000491E08432168C86100206062012084F862
:100BB0002000002070BD2068016841F080010160C4
:100BC000BEE72068016841F040010160C0E720688D
:100BD000016841F020010160C2E72068016821F04E
:100BE00010010160C4E72068016841F0080101605C
:100BF000C6E72068016841F004010160C8E7000011
:100C000010B586B00446142101A8FFF795FB1649DC
:100C10002068884225D100211448026842F0007201
:100C20000260006800F00070009003200190022232
:100C30000292039104900920059001A90C4800F04C
:100C400021F900221146132000F08CFA132000F045
:100C50007BFA00221146142000F084FA142000F0E0
:100C600073FA06B010BD0000006400404038024036
:100C7000000C02407047000070B5054600F002FA13
:100C80001A4C6168401AB0F5FA7F06D9202118483D
:100C900000F0E8F900F0F6F96060144B154A0833EB
:100CA00000212846FFF782FD124800680146A0F5A2
:100CB0000070013805D0012803D0022801D0032894
:100CC0000CD1491EC8B220700A4900EB4000C0395F
:100CD00001EB00100549083101F044FF06480068A7
:100CE000416941F00201416170BD000040000020F7
:100CF000001802402C050020A00200207047704719
:100D0000704770B5044694F82000012805D0606A49
:100D100040F400206062012070BD022084F82000B1
:100D20002068016821F00101016000F0ABF905467F
:100D30000DE000F0A7F9401B0A2808D9606A40F4CA
:100D400000306062052084F82000012070BD20681A
:100D50004068C007EDD1606270BD70477047704752
:100D600070477047704770472DE9F041044600F026
:100D700089F905465CB1002684F83460022084F8C5
:100D800035002068016821F0010101600DE00120BB
:100D9000BDE8F08100F076F9401B052805D9202038
:100DA0006065032084F83500F2E720680068C0071A
:100DB000F0D121680A6820480240D4E901031843B1
:100DC000D4E903352B43184363691843A3691843D7
:100DD000E3691843236A18431043626A042A03D163
:100DE000D4E90B231A43104308602068406920F0BF
:100DF0000700656A29460543012704290DD1A06A29
:100E00000543E06A48B12046FFF760FB28B1402067
:100E1000606584F835700120BAE720684561204696
:100E2000FFF73EFB94F85C203F21914081606665AE
:100E300084F835700020ABE73F8010F070B50446B1
:100E4000002594F8340001280CD0012084F83400E7
:100E500094F835600020012E06D084F83400022575
:100E6000284670BD022070BD022684F8356060659A
:100E70002046FFF767FB2068016841F0010101602F
:100E8000EEE700002DE9F84F0022DFF8A491DFF82B
:100E9000A08109F108094FF0010E4FF00F0C09F184
:100EA000040A0EFA02F60B683340B34271D14C6863
:100EB000022C01D0122C11D1D40800EB84073D6A1A
:100EC0005407E40E0CFA04FB25EA0B05D1F810B028
:100ED0000BFA04FB4BEA050BC7F820B00768540077
:100EE0000325A540AF4391F804B00BF0030B0BFAB8
:100EF00004FB4BEA070BC0F800B04F68012F05D088
:100F0000022F03D0112F01D0122F11D18768AF43C8
:100F1000D1F80CB00BFA04FB4BEA070BC0F808B091
:100F20004768B7430E79C6F3001696403E434660C5
:100F3000C668AE438D68A5403543C5604C68E40083
:100F40006FD53C4C256845F480452560246804F441
:100F500080440094384C22F003052544D5F80878E5
:100F60009407260F0CFA06F4A743344CA04201D193
:100F700000242EE0324CA04201D1012429E0314C62
:100F8000A04201D1022424E02F4CA04202D103242C
:100F90001FE046E02D4CA04201D1042419E02C4C66
:100FA000A04201D1052414E02A4CA04201D106241C
:100FB0000FE0294CA04201D107240AE0274CA042AF
:100FC00001D1082405E0264CA04201D1092400E00B
:100FD0000A24B4403C43C5F80848D8F800409C4374
:100FE0004D68ED0300D51C43C8F80040104D2D1D81
:100FF0002C689C434E68B60300D51C432C60D9F87E
:1010000000409C434D68ED0200D51C43C9F80040E8
:10101000DAF800409C434D68AD0200D51C43CAF885
:101020000040521C102AFFF43CAFBDE8F88F0000CE
:10103000003C0140443802400030014000000240C2
:101040000004024000080240000C02400010024070
:101050000014024000180240001C02400020024020
:1010600000240240426931EA020201D081617047E6
:10107000090481617047002A01D081617047090429
:101080008161704701488068704700001C000020A3
:101090000248816802781144816070471C0000207A
:1010A00010B50B48016841F400710160016841F41A
:1010B00080610160016841F480710160032000F0EB
:1010C00071F8002000F006F800F026F8002010BDAE
:1010D000003C024070B504460D4D4FF47A712878FB
:1010E000B1FBF0F00B490968B1FBF0F000F040FBF8
:1010F00008B1012070BD102C07D200222146501EDD
:1011000000F030F86C60002070BD012070BD000060
:101110001C0000202800002008B50A48016841F49E
:1011200080410160006800F4804000900548001F85
:10113000016841F080510160006800F0805000902B
:1011400008BD000044380240002809DB00F01F02FF
:10115000012191404009800000F1E020C0F8001119
:1011600070470000F0B40D460D4B1B68C3F302231B
:10117000C3F10704042C00D90424191D072901D246
:10118000002300E0DB1E012606FA04F1491E294077
:1011900099409E40761E16403143F0BC01F06FBC72
:1011A0000CED00E000F00701054A10684FF6FF0360
:1011B000184040EA012003490843106070470000CE
:1011C0000CED00E00000FA052DE9F04704460D465D
:1011D000002C13D0DFF82491D9F80000EFB200F012
:1011E0000F00A8420CD289F80070D9F8000000F076
:1011F0000F00A84204D00120BDE8F0870120FBE7E2
:1012000020683F4E810712D5400703D5306840F46F
:10121000E05030602078000703D5306840F460402B
:1012200030603068A16820F0F0000843306020781A
:10123000C00731D0324960680839012808D0022837
:101240000BD0032809D0096889070BD40120D3E704
:101250000968890306D40120CEE70968890101D411
:101260000120C9E7316821F0030101433160FFF734
:1012700009FF804641F2883A07E0FFF703FFA0EB41
:101280000800504501D90320B6E73068616800F0D6
:101290000C00B0EB810FF0D1D9F8000000F00F0086
:1012A000A84209D989F80070D9F8000000F00F00B1
:1012B000A84201D001209FE72078400705D530687B
:1012C000E16820F4E050084330602078000706D53C
:1012D0003068216920F4604040EAC100306000F0CD
:1012E0003BF83168074AC1F30311515CC840064915
:1012F00008600020FFF7EEFE00207DE7003C024082
:1013000008380240C448000828000020014800684E
:10131000704700002800002000B5FFF7F7FF0449E0
:101320000968044AC1F38221515CC84000BD000035
:1013300008380240D448000800B5FFF7E7FF044929
:101340000968044AC1F34231515CC84000BD000045
:1013500008380240D448000810B51748006810F05B
:101360000C01164816D0164B042912D0082911D1A9
:10137000114C241F216801F03F02216849020AD55F
:101380002068C0F38810A0FB03010023FEF78AFF4A
:1013900009E0184610BD21680023C1F38811A1FBA4
:1013A0000001FEF77FFF2168C1F30141491C49009C
:1013B000B0FBF1F010BD0000083802400024F4003A
:1013C000001BB7002DE9F84F0446002C10D0207800
:1013D000DC4DC00757D0DB4808300168C1F38101FC
:1013E00001290DD00068C0F38100022803D00EE06F
:1013F0000120BDE8F88FD348001D0068400206D5E3
:10140000286880033FD5606870BB0120F1E7606801
:10141000B0F5803F10D0B0F5A02F12D0286820F48E
:1014200080302860286820F4802028606068E0B15F
:10143000FFF728FE064614E0286840F48030286054
:10144000F4E7286840F480202860286840F4803061
:101450002860EBE7FFF716FE801B642801D9032004
:10146000C7E728688003F5D50DE0FFF70BFE0646B9
:1014700006E0FFF707FE801B642801D90320B8E7C8
:1014800028688003F5D42078AF4F80074FF000081C
:1014900049D5AC480830016811F00C0F09D000683C
:1014A000C0F38100022814D1A648001D0068400244
:1014B0000FD42868800704D5E068012801D00120F6
:1014C00097E72868216920F0F80040EAC100286009
:1014D00029E0E068B8B101203860FFF7D3FD064687
:1014E00006E0FFF7CFFD801B022801D9032080E72B
:1014F00028688007F5D52868216920F0F80040EABF
:10150000C10028600FE0C7F80080FFF7BBFD06466A
:1015100006E0FFF7B7FD801B022801D9032068E72A
:1015200028688007F5D42078000729D5DFF81492C1
:101530008648616909F1740989B101210160FFF7E9
:10154000A1FD064606E0FFF79DFD801B022801D99C
:1015500003204EE7D9F800008007F4D510E0C0F86A
:101560000080FFF78FFD064606E0FFF78BFD801B2E
:10157000022801D903203CE7D9F800008007F4D401
:101580002078400772D50026DFF8B8A10AF1400A9A
:10159000DAF80000C0000BD4DAF8000040F0805008
:1015A000CAF80000DAF8000000F080500090012630
:1015B000DFF89CB1DBF80000C00515D4DBF80000B3
:1015C00040F48070CBF80000FFF75CFD814607E037
:1015D000FFF758FDA0EB0900022801D9032008E716
:1015E000DBF80000C005F3D5DFF858B1A0680BF1B7
:1015F000700B012813D0052818D0DBF8000020F06C
:101600000100CBF80000DBF8000020F00400CBF86C
:101610000000A06830B3FFF735FD81461DE0DBF820
:10162000000040F00100CBF80000F2E7DBF800001A
:1016300040F00400CBF80000DBF8000040F00100AF
:10164000CBF80000E5E7FFF71DFDA0EB090141F233
:101650008830814201D90320CBE6DBF80000800707
:10166000F1D512E0FFF70EFD81460AE015E0FFF725
:1016700009FDA0EB090141F28830814201D9032024
:10168000B7E6DBF800008007F1D4012E05D1DAF8C7
:10169000000020F08050CAF80000A069C0B32949BA
:1016A00008310968C1F38101022949D0022805D017
:1016B000C7F86080FFF7E6FC04463CE0C7F86080AE
:1016C000FFF7E0FC064606E0FFF7DCFC801B022883
:1016D00001D903208DE628688001F5D4D4E90701FB
:1016E0000843616AA26A4FF0FF33890103EB52029B
:1016F00041EA0241084394F82C1040EA0161114884
:10170000001D016001203866FFF7BCFC044607E0BD
:1017100014E0FFF7B7FC001B022801D9032068E69C
:1017200028688001F5D509E0FFF7ACFC001B022812
:1017300001D903205DE628688001F5D4002058E631
:10174000012056E60038024000004742800E474222
:10175000007000404FF0E021042804D0086920F018
:10176000040008617047086940F004000861704790
:1017700010B5401EB0F1807F01D3012010BD4FF0A5
:10178000E02460610F21601701F079F90020A06169
:1017900007202061002010BD70477047704770B56A
:1017A0000446206801694FF00005C943890716D433
:1017B000C168C943890712D4E91E0161012020775D
:1017C00020688069800703D02046FFF7E7FF05E027
:1017D000204600F09BF8204600F050F9257720685D
:1017E0000169C943490718D4C168C943490714D4DA
:1017F0006FF004010161022020772068806910F4F5
:10180000407F03D02046FFF7C9FF05E0204600F0E7
:101810007DF8204600F032F9257720680169C94338
:10182000090717D4C168C943090713D46FF0080129
:101830000161042020772068C069800703D020461A
:10184000FFF7ACFF05E0204600F060F8204600F00E
:1018500015F9257720680169C943C90618D4C168FC
:10186000C943C90614D46FF0100101610820207724
:101870002068C06910F4407F03D02046FFF78EFF38
:1018800005E0204600F042F8204600F0F7F8257702
:1018900020680169C943C90708D1C168C943C9079C
:1018A00004D1891E0161204600F00CF9206801690D
:1018B000C943090609D4C168C943090605D46FF0B4
:1018C000800101612046FFF767FF20680169C94375
:1018D000490609D4C168C943490605D46FF04001DF
:1018E0000161204600F0EFF820680169C9438906CC
:1018F0000BD4C168C943890607D46FF02001016188
:101900002046BDE87040FFF748BF70BD704770B516
:1019100004460D4694F83C0001280DD0012684F8B9
:101920003C60022084F83D0042B1042A1AD0082A03
:101930002DD00C2A53D13EE0022070BD29462068EC
:1019400000F0CCFD2068816941F0080181612068C8
:10195000816921F004018161206881692A6911434C
:1019600081613CE02946206800F0ECFD2068816937
:1019700041F4006181612068816921F480618161A5
:10198000206881692A6941EA0221816127E02946AC
:10199000206800F011FE2068C16941F00801C161B2
:1019A0002068C16921F00401C1612068C1692A6908
:1019B0001143C16113E02946206800F035FE20681C
:1019C000C16941F40061C1612068C16921F480618D
:1019D000C1612068C1692A6941EA0221C1613C34C0
:1019E00066700020207070BD10B50446002C03D036
:1019F00094F83D0010B107E0012010BD002084F8EC
:101A00003C00204600F00CF8022084F83D00211D27
:101A1000206800F0EFFC012084F83D00002010BD9C
:101A200010B586B00446142101A8FEF785FC1048C5
:101A30002168814219D10F490A6842F004020A6004
:101A4000096801F004010091216881420DD14FF431
:101A50007040019002200290012103910321049122
:101A6000059001A90448FFF70DFA06B010BD00006B
:101A70000008004040380240000C0240704700005F
:101A800010B504460122206800F01AFD0B482168B9
:101A9000814202D00A48814203D1486C40F40040A0
:101AA00048642068816801F00701062903D00168B5
:101AB00041F001010160002010BD00000000014064
:101AC000000401407047704738B501680A68D206C3
:101AD00065D50A684968416B394A0968914201D164
:101AE000202233E0374A914201D120222EE0344AAD
:101AF0006032914201D1202228E0324A6032914284
:101B000001D1202222E02E4B1833DA1499421DD045
:101B10002C4B1833994219D0294B7833994215D060
:101B2000284B7833994211D0254B92023033994299
:101B30000CD0244B3033994208D0214B903399423A
:101B400004D0204B9033994200D092010B6823F0CF
:101B500001030B60416B1B4B09684833994203D961
:101B60001849091F0A6010E0154BA833994203D9A0
:101B7000144908390A6008E0114C114B4834103BF5
:101B8000A14201D9DA6000E09A60426B818D12684F
:101B90005160406B0068016841F0010101600A4832
:101BA0006946006802F05FFA0098012806D10749EB
:101BB00000070860BFF34F8FBFF36F8F38BD000081
:101BC00010600240106402401000002004ED00E0AC
:101BD00070B50446002C04D094F83900002510B1EB
:101BE00006E0012070BD84F83850204600F022F84D
:101BF000242084F839002068C16821F40051C160B4
:101C0000204600F079FD2068016921F490410161CE
:101C10002068416921F02A0141612068C16841F4CE
:101C20000051C160E563202084F8390084F83A004F
:101C3000002070BD70B586B00646142101A8FEF7DD
:101C40007BFB294C30680025284902220123A04251
:101C500031D1086840F010000860086800F01000FA
:101C60000090C0200190029203930320049007206B
:101C7000059001A91E48FFF705F91F4C1D4820607B
:101C80004FF000606060A560E56040142061656110
:101C9000A561E561256265622046FFF765F874631A
:101CA000A663002203212520FFF75CFA2520FFF719
:101CB0004BFA06B070BD114CA042FAD1086840F052
:101CC00020000860086800F0200000904FF4844075
:101CD00001900292039304920820059001A90848FC
:101CE000FFF7D0F8E5E7000000100140443802405B
:101CF000000402404064024034020020001401400D
:101D00000018024030B40368DC6844F01004DC6062
:101D100030BC00F0B3BC2DE9F84304460D469146B3
:101D20001E4694F83900202802D00220BDE8F8832E
:101D3000B5B1B9F1000F13D094F83800012811D0D3
:101D4000012084F838000027E763212084F8390057
:101D5000FFF798F98046A4F82490A4F826902DE087
:101D60000120E3E70220E1E7E08C401EE084A06868
:101D7000B0F5805F09D043460022802120460096BE
:101D800000F044FEB0B10320D0E74346002280219A
:101D90002046009600F03AFE08B10320C6E72888E6
:101DA0002168C0F308004860206908B16D1C05E097
:101DB000AD1C03E0216815F8010B4860E08C002899
:101DC000D2D14346002240212046009600F01EFE5C
:101DD00008B10320AAE72020383460702770002063
:101DE000A4E7FEE7054C4FF47A7506212046FFF77D
:101DF00039F9284601F0A4FDF7E700000018024079
:101E000010B5124810490160032141600021816032
:101E1000C1604FF4002202614FF44012426101762A
:101E2000012242768176C17601774177FEF73EFE48
:101E30000648FEF766FF054800F0D1FEBDE81040F9
:101E400002210248FEF795BB00640040A00200207A
:101E500008B50D48016841F480010160006800F494
:101E600080000090002211463A20FFF77BF93A20CB
:101E7000FFF76AF9002211464520FFF773F9BDE824
:101E800008404520FFF760B93038024070B586B091
:101E9000142101A8FEF750FA00242A48016841F0F5
:101EA00080010160016801F080010091016841F04A
:101EB00040010160016801F040010091016841F0BA
:101EC00010010160016801F010010091016841F00A
:101ED00008010160016801F008010091016841F00A
:101EE00004010160016801F004010091016841F002
:101EF00002010160016801F002010091016841F0F6
:101F000001010160006800F0010000900E4E4FF4E6
:101F1000FF75002229463046FFF7ADF801950125EF
:101F200002950394049401A93046FEF7ABFFE80242
:101F3000019002950394049401A90448FEF7A2FFBE
:101F400006B070BD30380240001802400010024058
:101F500010B588B01E481D4901605321416000241E
:101F6000846044F61F61C16004618461FFF73CFD39
:101F70006020019042F20F700290039405940022B9
:101F800001A91348FFF7C3FC042201A91048FFF779
:101F9000BEFC082201A90E48FFF7B9FC0C2201A9DA
:101FA0000B48FFF7B4FC00210948FFF769FD042145
:101FB0000748FFF765FD08210548FFF761FD0C2183
:101FC0000348FFF75DFD08B010BD000000080040A9
:101FD00010010020094808490160094941600021B9
:101FE0008160C1604FF4806202610C2242618161B4
:101FF000C161FFF7EDBD000000100140B4010020F9
:10200000A086010010B50D480B4901604FF4E13185
:10201000416000218160C16001610C2242618161E7
:10202000C161FFF7D5FD05496422A439BDE8104020
:1020300001F16400FFF766BE00140140F4010020C6
:10204000FEE770470A4E0B4C0B4D09E00B48B16A96
:10205000FEF7BCF9002305220849206801F0F2FED2
:102060000521286802F0ECF80028F9D0EEE700001E
:10207000B40100200C00002010000020C802002045
:1020800088B0DFF8A8802A4E052203A9D8F80000FE
:1020900002F038F80028F7D0BDF812004FF4FA51DA
:1020A00010FB01F04FF4257190FBF1F50024214F56
:1020B00000EE105A04EBC40000EB0410B8EEC00AA6
:1020C00006EB800080ED010A04EB440107EB0111EF
:1020D000B1F9001000EE101A016EB8EEC00A884780
:1020E000641C042CE4DB96ED570ABDEEC00A10EE2A
:1020F000100A96ED3E0A00B2BDEEC00A10EE101AAC
:1021000009B2CDE9001096ED250A0B49BDEEC00AD3
:1021100010EE100A96ED0C0A03B2BDEEC00A10EEE6
:10212000100A02B2054801F0ADFAADE70C0000203C
:10213000DC0200206C04002048050020A0020020E2
:102140001CB5FEF7ADFF00F0B9F8A82000F0F0FCD8
:10215000FFF79CFEFFF7FCFEFFF77AFEFFF73AFF62
:10216000FFF750FFFFF74CFE00F0A8FC06480121E6
:10217000CDE900100023802204A1074802F05CF999
:10218000BDE81C4001F0F6BC1400002053746172DD
:10219000745F7461736B0000C9210008084C094D1D
:1021A0002088288060886880A088A880E088E880EF
:1021B000207A2881607A688101F084FAF0E70000D3
:1021C000C8020020940200201CB501F0E3FA0022AE
:1021D0001421022001F0CEFD1C49086003220021D9
:1021E000012001F0C7FD1A4908601A480424CDE90E
:1021F00000400023A20118A11A4802F01DF91A4854
:102200000023CDE90040802218A11B4802F014F9F8
:102210001A480321CDE900100023322218A11B48DF
:1022200002F00AF91A480021CDE900100B461E22DF
:1022300018A11B4802F000F91548001F006801F0C2
:10224000A7FBBDE81C4001F0C5BA00000C0000204F
:10225000100000203C00002052656D6F74655F49DE
:102260006E666F00452000083800002052656D6FD3
:1022700074655F7461736B0081200008CC000020DE
:102280004C6564315F7461736B000000E51D0008EC
:102290001800002053616E7761695F7461736B0091
:1022A0009D21000810B502F0F7F8012801D001F0D7
:1022B0004BFDBDE81040FEF7EBBE000030B593B01B
:1022C000302107A8FEF738F8142102A8FEF734F8E9
:1022D00000252548016841F080510160006800F048
:1022E000805001902148016841F44041016000683C
:1022F00000F440400190012007900004089002245F
:102300000D9480010E9006200F90A820109011943B
:102310000420129007A8FFF755F808B1FEF728F936
:102320000F200290039404954FF4A05005904FF4B1
:1023300080500690052102A8FEF746FF08B1FEF77F
:1023400017F9FEF7E3FF4FF47A71B0FBF1F0FFF7F6
:102350000FFA0420FFF7FEF900221146501EFEF787
:1023600001FF13B030BD0000403802400070004053
:102370001048016841F4700101600F48016841F0A4
:10238000010101600C4A00210832116002680B4B08
:102390001A400260031D0A4A1A60026822F4802271
:1023A000026005480C300160024958068039086017
:1023B0007047000088ED00E000380240FFFFF6FEA5
:1023C0001030002410B50848FFF7E9F9074C2078D1
:1023D000C82802D2401C207010BD06210448FEF718
:1023E00041FE0020207010BDD00000200000002021
:1023F000001802402DE9F0410268264D264E274F75
:10240000DFF89CC0274B4FF08048A84209D04045D8
:1024100007D0B04205D0B84203D0604501D0984201
:1024200003D122F070044A682243A8421BD04045E1
:1024300019D0B04217D0B84215D0604513D0984299
:1024400011D0194CA0420ED0184CA0420BD0184C01
:10245000A04208D0174CA04205D0174CA04202D091
:10246000164CA04203D122F44074CA6822434C693E
:1024700022F08002224302608A68C2620A68826295
:10248000A84201D0984201D109690163012141614B
:10249000BDE8F08100000140000400400008004059
:1024A000000C004000040140004001400044014095
:1024B0000048014000180040001C0040002000407F
:1024C00010B501F01F0101238B40046A9C43046294
:1024D000036A8A401343036210BD0000F0B5026A2C
:1024E00022F001020262026A4368846924F07004E7
:1024F00024F003050C682C4322F002058A682A4365
:102500000E4E0F4FB04201D0B84205D122F008055F
:10251000CA682A4322F00402B04201D0B84207D16F
:1025200023F4807323F400734D691D438B692B439F
:1025300043608461496841630262F0BD000001406C
:1025400000040140F0B5026A22F010020262036A40
:102550004268846924F4E04424F440740D6844EA39
:10256000052423F020038D6843EA0513104D114E16
:10257000A84201D0B04206D123F08003CF6843EADD
:10258000071323F04003A84201D0B04209D122F43E
:10259000806222F400624D6942EA85028D6942EA56
:1025A000850242608461496881630362F0BD000076
:1025B0000000014000040140F0B5026A22F480727C
:1025C0000262026A4368C46924F0700424F00305BF
:1025D0000C682C4322F400728D6842EA0522104DEB
:1025E000104EA84201D0B04206D122F40062CF685A
:1025F00042EA072222F48062A84201D0B04209D107
:1026000023F4805323F400534D6943EA05138D6985
:1026100043EA05134360C4614968C1630262F0BDC7
:10262000000001400004014030B5026A22F48052EB
:102630000262046A4268C36923F4E04323F44073EE
:102640000D6843EA052324F400548D6844EA0534F8
:10265000084DA84202D0084DA84204D122F480427D
:102660004D6942EA85124260C361496801640462AF
:1026700030BD0000000001400004014037B582B0C9
:102680000446134694F83A00202802D0022005B0F0
:1026900030BD039A5AB353B394F83800012828D0B8
:1026A000012084F83800A262A3850025E56322207A
:1026B00084F83A00606B05652168606B091DFEF7C0
:1026C000BDFB206801684168019184F83850C168F9
:1026D00041F48071C1602068416941F001014161AC
:1026E0002068416941F0400141610020CFE70120AD
:1026F000CDE70220CBE700002DE9F0410446206839
:102700000169E26821F4405111430161A168206927
:10271000E26901436069104301432068C26849F2DD
:102720000C639A430A43C26020684169A26921F49C
:10273000407111434161E069B24AB34964253226D0
:10274000B0F5004F59D02068884201D090427DD129
:10275000FEF7F2FD00EBC00101EB0010616889009B
:10276000B0FBF1F7FEF7E8FD00EBC00101EB001054
:1027700061688900B0FBF1F0B0FBF5F06FF0180173
:10278000484307EB800006EB0010B0FBF5F000F0CB
:10279000F007FEF7D1FD00EBC00101EB001061680E
:1027A0008900B0FBF1F0B0FBF5F007EB0017FEF786
:1027B000C3FD00EBC00101EB001061688900B0FBB4
:1027C000F1F8FEF7B9FD00EBC00101EB0010616804
:1027D0008900B0FBF1F0B0FBF5F06FF01801484351
:1027E00008EB800006EB0010B0FBF5F0216800F06C
:1027F0000F0038448860BDE8F0812068884201D02D
:10280000904256D1FEF798FD00EBC00101EB00109D
:1028100061684900B0FBF1F0B0FBF5F00701FEF78D
:102820008BFD00EBC00101EB001061684900B0FBBB
:10283000F1F8FEF781FD00EBC00101EB00106168CB
:102840004900B0FBF1F0B0FBF5F000E086E06FF07E
:102850001801484308EB800006EBC000B0FBF5F020
:1028600000F0F80007EB4007FEF766FD00EBC00143
:1028700001EB001061684900B0FBF1F8FEF75CFD68
:1028800000EBC00101EB001061684900B0FBF1F002
:10289000B0FBF5F06FF01801484308EB800006EB41
:1028A000C000B0FBF5F0216800F0070038448860F4
:1028B000A1E7FEF731FD00EBC00101EB00106168FC
:1028C0004900B0FBF1F0B0FBF5F00701FEF724FD85
:1028D00000EBC00101EB001061684900B0FBF1F8AA
:1028E000FEF71AFD00EBC00101EB00106168490022
:1028F000B0FBF1F0B0FBF5F06FF01801484308EBC6
:10290000800006EBC000B0FBF5F000F0F80007EB2C
:102910004007FEF701FD00EBC00101EB001061680C
:102920004900B0FBF1F8FEF7F7FC00EBC00101EB4A
:10293000001061684900B0FBF1F0B0FBF5F06FF0FA
:102940001801484308EB800006EBC000B0FBF5F02F
:10295000216800F00700384488604CE7FEF7DCFC93
:1029600000EBC00101EB001061688900B0FBF1F7DA
:10297000FEF7D2FC00EBC00101EB0010616889009A
:10298000B0FBF1F0B0FBF5F06FF01801484307EB36
:10299000800006EB0010B0FBF5F000F0F007FEF74A
:1029A000BBFC00EBC00101EB001061688900B0FBCB
:1029B000F1F0B0FBF5F007EB0017FEF7ADFC00EB14
:1029C000C00101EB001061688900B0FBF1F8FEF76F
:1029D000A3FC00EBC00101EB001061688900B0FBB3
:1029E000F1F0B0FBF5F06FF01801484308EB800000
:1029F00006EB0010B0FBF5F0216800F00F00384442
:102A00008860F8E600140140001001402DE9F04113
:102A100004460E4617469846069D1DE0681C1BD0CE
:102A20002DB1FEF72FFBA0EB0800A84214D92068B7
:102A3000C16821F4D071C1602068416921F00101B1
:102A40004161202084F8390084F83A00002084F89D
:102A500038000320BDE8F0812068006836EA0000F5
:102A600004D00020B842D9D00020F3E70120F9E7D4
:102A70000148FFF729B80000B4010020FEE709076C
:102A8000090E002804DB00F1E02080F800147047F4
:102A900000F00F0000F1E02080F8141D704702E004
:102AA00008C8121F08C1002AFAD1704770470020D9
:102AB00001E001C1121F002AFBD170472DE9F04748
:102AC0002DED028B84B00024164F9FED178ADFEDA9
:102AD000178A00264FF4FA5841F288394FF4804A99
:102AE00004EBC40000EB041007EB8005284600F05F
:102AF00005F9CDE9006828460296AD6DF0EE481A5A
:102B0000B0EE681AF7EE080AB2EE040A4B465246D7
:102B10000121A847641C042CE2DB04B0BDEC028B4D
:102B2000BDE8F087DC02002000000000CDCCCC3DE9
:102B300010B504460420FEF70DFE094844604FF42A
:102B40007A714C43012101804FF0E021086940F087
:102B5000020008614C61086940F00100086110BD85
:102B60000400002030B58389C3814A780C7842EA9A
:102B700004228281CC788D7844EA052404804C7943
:102B80000D79F1EE040A44EA052400EE104AB8EE8D
:102B9000400A20EE200ADFED0E0A20EE200A80ED2A
:102BA000010A89798172D31A4169B3F5805F02DD28
:102BB000491E416104E013F5805F01DA491C41615F
:102BC000416902EB4131028A891A816130BD0000FE
:102BD0000000803810B5FFF7B3FA002010BD00B533
:102BE0008BB000210791012208920191029103917B
:102BF000049105910E210691099201A9FDF744FD6A
:102C00000BB000BD10B504462DED028BB0EE408A2E
:102C1000E06C2065FEF736FAE06494F85010401A34
:102C200084F8540084ED068AD4ED071AC4ED081A1E
:102C300094ED0C0A84ED0D0A94ED010A30EE480A79
:102C400084ED070AB5EEC00AF1EE10FA02DDF0EEEF
:102C5000400A01E0F1EE400A94ED101AF4EEC10AC8
:102C6000F1EE10FA45DDD4ED030A20EE801A84ED72
:102C7000091AD4ED0A0A94ED042A42EE000AC4EDC2
:102C80000A0A30EE610AD4ED051A60EE211AC4ED8D
:102C90000B1A94ED0F0AF4EEC00AF1EE10FA01DD02
:102CA00084ED0A0AD4ED0A0AB1EE400AF4EEC00A35
:102CB000F1EE10FA01D284ED0A0A94ED0A0A31EE1F
:102CC000000A70EE210AC4ED0C0A94ED0E0AF4EE2F
:102CD000C00AF1EE10FA01DD84ED0C0AD4ED0C0A05
:102CE000B1EE400AF4EEC00AF1EE10FA01D284ED22
:102CF0000C0A94ED0C0ABDEC028B10BD03498165F2
:102D00000349C1650349016670470000192D000899
:102D1000752D0008052C00089DED003A9DED012A57
:102D2000DDED022A0170B8EE433A80ED113A80EDF4
:102D3000100A00EE103AB8EE400A80ED0F0A00EEDD
:102D4000102AB8EE400A80ED0E0AB8EEC20A80EDF5
:102D5000120AB8EEE20A80ED010AC0ED030A80ED26
:102D6000041AC0ED051A9FED020A80ED0C0A7047A7
:102D70000000000080ED030AC0ED040A80ED051A92
:102D8000704700002DE9F04104460F46174EF568E4
:102D90003068001D00F0B8FC38B9306890F82C108D
:102DA00001208840316981433161601C07D137B10E
:102DB0003168BDE8F041091D0D4800F0DEBC2C442F
:102DC00030684460AC4206D23168B06B091DBDE882
:102DD000F04100F0BABC3168706B091D00F0B5FC21
:102DE000B06A844200D2B462BDE8F081580000208D
:102DF0007C06002070B5044600F0CCFC1D4DA86890
:102E0000401CA860286810B1686938B10CE02C60DB
:102E1000A868012808D100F079F905E02868E16A7E
:102E2000C06A884200D82C60686A401C68622064CE
:102E3000E06A01212A698140114329610E4900EBB2
:102E4000800001EB8000211D00F097FC00F0C2FC27
:102E5000686900280CD02868E16AC06A884207D2F5
:102E600006494FF080500860BFF34F8FBFF36F8F5C
:102E700070BD000058000020A005002004ED00E017
:102E800010B500F087FC0E4C2068A0B90D4800F08A
:102E90004EFC0C48143000F04AFC0A48E060143044
:102EA000206100220C210A2000F064FF206010B194
:102EB00005A100F00FFDBDE8104000F08BBC000044
:102EC0009400002090060020546D72510000000014
:102ED00070B50C4D0C4E11E000F05CFCF068C4685D
:102EE000201D00F011FCA868401EA8606868401E04
:102EF000686000F06FFC204600F053F86868002816
:102F0000EAD170BD580000206806002030B40B469E
:102F1000026C002A0CD0C1681144C1608468A142CF
:102F200001D30168C160C16830BC1846FDF7EBB938
:102F300030BC70472DE9F041044617460026A56BCA
:102F4000226C002A10D0C7B1E068FDF7DCF9E16817
:102F5000206C091AE1602268914202D2A168081A25
:102F6000E060022F16D017E02068A8B9A06801F031
:102F70000DFB06460020A0600EE06068FDF7C3F977
:102F8000216C606808446060A168884204D32068AE
:102F9000606001E005B16D1E6D1CA5633046BDE8A3
:102FA000F08110B50446206B00F02AFC2046BDE8F5
:102FB000104000F025BC416A002904D0006B006875
:102FC000C0F1070070470020704700000749CA6839
:102FD0001168002904D00021016019B10020704758
:102FE0000121F9E7D06800687047000094000020D4
:102FF0004FF496310F48420706D0C01D20F007005D
:103000000C49411AC1F596310B4A106000235360F8
:103010000144083921F00701103A11604B600B6040
:103020000B1A436001604068906050604FF00040B0
:10303000D0607047B8060020C4000020FFF748FFAA
:10304000FCE770B51D46049C002909D02260E063AE
:1030500021640121204600F0AFFE84F84C5070BD81
:103060002460F4E72DE9F05F8246DDE90A590C9C03
:103070000E4617469B46B900A522206BFDF755F971
:10308000206B7F1E00EB870020F00707780707D032
:10309000202080F31188BFF34F8FBFF36F8FFEE7BF
:1030A0004FF0000866B100202218315C82F834101D
:1030B000315C11B1401C0A28F6D384F83D8001E050
:1030C00084F83480072D00D30625E562A564C4F892
:1030D0004C80201D00F036FB04F1180000F032FB9C
:1030E0002461C5F10700A0616462C4F8508084F8CF
:1030F00054805A465146384600F0A8FA2060B9F18B
:10310000000F01D0C9F80040BDE8F09F70B5002461
:10311000124D04EB840005EB800000F008FB641CFA
:10312000072CF6D30D488C3000F001FB0B48A03083
:1031300000F0FDFA0948B43000F0F9FA0748C83049
:1031400000F0F5FA0548DC3000F0F1FA03490448D4
:103150008C3141631431816370BD0000A0050020F3
:103160005800002030B5134900E011460A68824239
:10317000FBD34B685C18844203D140681844486014
:1031800008460D6844682318AB420DD1094B103B2B
:103190001B689A4206D05268224442600A6812684C
:1031A000026002E0036000E00260814200D008603B
:1031B00030BD0000C400002070B5002441600061F3
:1031C0000C4D91420AD8D11A8269914201D301244F
:1031D0000EE0011D286900F0B8FA09E09A4203D216
:1031E000994201D3012403E0011DE86800F0ADFA23
:1031F000204670BD9400002010B5044600F0CAFAC5
:10320000A06B20B1002400F0E5FA204610BD012497
:10321000F9E710B5044600F0BDFAA06BE16B8842F7
:1032200001D1012400E0002400F0D4FA204610BDB2
:10323000F8B505460E461748C068C068C468201D2A
:1032400000F062FA94F82800410718D5A0692B46CF
:10325000411932462046FFF7AFFFA0B100200346D8
:10326000014600902A46204601F0F4FA58B9202081
:1032700080F31188BFF34F8FBFF36F8FFEE720F00D
:10328000010084F82800216A01B02046BDE8F04022
:10329000084700009400002030B585B0394D67E044
:1032A0000298002864DB049C606910B1201D00F0C6
:1032B0002BFA01A800F0B0F8024602980A2857D26B
:1032C000DFE800F00505052D334A05052D3394F898
:1032D000280040F0010084F828000398A169034603
:1032E00001442046FFF768FF68B3216A20468847FB
:1032F00094F8280040073BD5002000900398A1696E
:10330000002342181946204601F0A4FAD8B920201B
:1033100080F31188BFF34F8FBFF36F8FFEE714F870
:10332000280F20F00100207022E094F8280040F0DF
:10333000010084F828000398A06128B18118134681
:103340002046FFF739FF13E0202080F31188BFF3F8
:103350004F8FBFF36F8FFEE794F82800810703D4E7
:10336000204600F04DFA03E020F0010084F8280028
:10337000002202A9286800F0C5FE002890D105B0FF
:1033800030BD000094000020F8B506460D4600F060
:1033900029FC684600F040F80446009810B101F09E
:1033A000CBF9F8BD45B9A64206D801F0C5F92146CA
:1033B0003046FFF73DFFF8BD0C481DB101690968B3
:1033C00091B10025311B2A46006800F095FA01F002
:1033D000B3F90028EFD106494FF080500860BFF3E1
:1033E0004F8FBFF36F8FF8BD0125EBE794000020EE
:1033F00004ED00E00748416B0968002905D0416BE6
:10340000C968C9684968816270474FF0FF318162BD
:10341000704700005800002070B5054601F04AF8DA
:103420000446074EB068844204D200F00BF8012035
:10343000286001E000202860B460204670BD0000D4
:1034400094000020F8B51A4E20E0C0680568C468F2
:10345000201D00F059F9216A2046884794F8280079
:10346000400713D5A0692844A84206D960602461AA
:10347000211DF06800F069F908E0002003460146CC
:1034800000902A46204601F0E5F940B1F068016855
:103490000029DAD1F0683169F1603061F8BD20208F
:1034A00080F31188BFF34F8FBFF36F8FFEE70000EB
:1034B0009400002009484068401C07D0202080F379
:1034C0001188BFF34F8FBFF36F8FFEE7202080F38B
:1034D0001188BFF34F8FBFF36F8FFEE7A800002066
:1034E00008B56846FFF772FD0099FFF74DFFFFF73B
:1034F000D3FEF6E72DE9F041044600F04BF994F9CC
:10350000455004F1240609E0606A48B1304601F0F4
:10351000D5F808B100F09AFA6D1E6DB2002DF3DCFB
:103520004FF0FF3684F8456000F054F900F032F9AE
:1035300094F9445004F1100709E0206948B1384675
:1035400001F0BCF808B100F081FA6D1E6DB2002DDB
:10355000F3DC84F84460BDE8F04100F03BB90000C2
:103560002DE9F0410546002600F03CFB304F38685D
:1035700008B9FFF73DFDF86805424AD18DB108351D
:1035800068070ED005F00700C0F108000544680781
:1035900007D0202080F31188BFF34F8FBFF36F8FC8
:1035A000FEE7B5B37868854233D821491031084623
:1035B000046801E0214604466068A84202D22068FF
:1035C0000028F7D13868844223D00E680836206876
:1035D00008606068411B10290ED96019420707D0A6
:1035E000202080F31188BFF34F8FBFF36F8FFEE76A
:1035F00041606560FFF7B6FD61687868401A7860E1
:10360000BA68904200D2B860F86801436160002057
:10361000206001F091F8700707D0202080F3118816
:10362000BFF34F8FBFF36F8FFEE73046BDE8F081E9
:10363000B400002004490868002803D00868C26C60
:10364000521CC264086870475800002024384FF0AC
:103650008073036221F00101C1610449816142600C
:103660006FF0020140F8201970470000B5340008DF
:1036700001B50A23012269460148FEF74CFB08BD4B
:10368000F4010020F0B4DDE904564FF400740C603E
:1036900000248C60CC6008240C61094C170A277048
:1036A00062701A0AA270E3702A0A22716571320AE6
:1036B000A271E6712246F0BC0123FCF76CBF00004A
:1036C0005000002070B50320FFF7D2FFFC20FFF769
:1036D000CFFF00240B4D15F81400FFF7C9FF35F894
:1036E0001400C0F30720FFF7C3FF641CE4B2062CEC
:1036F000F1D3FC20FFF7BCFFBDE870400320FFF7CB
:10370000B7BF0000940200200169D0E901329A603D
:10371000D0E901235A604A68824201D182684A6036
:10372000002202610868401E08600868704700F1C6
:10373000080141604FF0FF328260C16001610021E9
:103740000160704700210161704730B50C68621C50
:1037500002D000F1080202E0026904E01A46536850
:103760001D68A542FAD953684B6099608A60516020
:1037700008610168491C016030BD42684A60936875
:103780008B6093685960916008610168491C016011
:1037900070470000202080F31188BFF34F8FBFF3E4
:1037A0006F8F0A494868401C486001280CD10848BE
:1037B000006810F0FF0F07D0202080F31188BFF3BE
:1037C0004F8FBFF36F8FFEE770470000A800002007
:1037D00004ED00E009494868002806D0401E486012
:1037E000002801D180F311887047202080F31188D0
:1037F000BFF34F8FBFF36F8FFEE70000A8000020DC
:1038000070B5002827D008380446134D6068E96871
:10381000084207D1202080F31188BFF34F8FBFF3F8
:103820006F8FFEE722683AB1202080F31188BFF342
:103830004F8FBFF36F8FFEE78843606000F0D2F9CF
:1038400060686968084468602046FFF78BFCBDE843
:10385000704000F071BF70BDB40000204FF0E02058
:1038600000210161816105494FF47A720968B1FB59
:10387000F2F1491E416107210161704728000020D3
:1038800010B5FCF7F9FC114910280ED300F1E02027
:1038900090F8F0030A78904207D2202080F3118834
:1038A000BFF34F8FBFF36F8FFEE709480068896849
:1038B00000F4E060884207D9202080F31188BFF32C
:1038C0004F8FBFF36F8FFEE710BD0000A8000020F0
:1038D0000CED00E010B50022064B53F832401CB14D
:1038E000521C082AF9D310BD43F8321003EBC20171
:1038F000486010BD6005002070B504460D461646B0
:10390000FFF748FF94F944304FF000005B1C01D1F1
:1039100084F8440094F94510491C01D184F845000D
:10392000FFF758FFA06B28B93246294604F124005E
:1039300000F0ACF82046BDE87040FFF7DBBD0000AA
:1039400010B502460020002A12D00F48006B38B193
:10395000202080F31188BFF34F8FBFF36F8FFEE7F6
:1039600000F040F900211046FFF70CFA00F0E4FEE9
:10397000002807D105494FF080500860BFF34F8FF2
:10398000BFF36F8F10BD00005800002004ED00E071
:1039900070B50446FFF7FEFE254D04B92C68201DC6
:1039A000FFF7B2FE58B9E06A224A00EB800152F8F4
:1039B000211021B901218140286988432861A06A2A
:1039C00018B104F11800FFF79FFE686A401C686296
:1039D0002868844208D11748211DC830FFF7CDFE62
:1039E0006868401C686007E0A868401EA860204620
:1039F000FFF7D7FAFFF7FEFCFFF7ECFE6869002837
:103A000014D02868844211D1286B38B1202080F36B
:103A10001188BFF34F8FBFF36F8FFEE706494FF05A
:103A200080500860BFF34F8FBFF36F8F70BD0000F1
:103A300058000020A005002004ED00E002490A6AB9
:103A40000260C968416070475800002001490120A8
:103A5000C86170475800002010B50C4600280AD0F5
:103A6000094909681831FFF770FE2046BDE810408B
:103A70000121FFF787B9202080F31188BFF34F8F12
:103A8000BFF36F8FFEE700005800002070B50D46B1
:103A9000144600280DD00B4909681831FFF76DFE58
:103AA0000CB14FF0FF3521462846BDE87040FFF7C6
:103AB00069B9202080F31188BFF34F8FBFF36F8F58
:103AC000FEE700005800002070B50B4604460028B1
:103AD0004BD0E26CA2B1A16C994200D21946E06AC7
:103AE000884242D0012A40D1204D2A6894420FD109
:103AF000202080F31188BFF34F8FBFF36F8FFEE755
:103B0000202080F31188BFF34F8FBFF36F8FFEE744
:103B1000E162A269002A02DBC1F10701A161144E32
:103B200000EB8000616906EB800081421DD1201D01
:103B3000FFF7EAFD012150B9E06A00EB800256F878
:103B4000222022B901FA00F2286990432861E06A34
:103B50002A6981401143296100EB800006EB800057
:103B6000211DBDE87040FFF708BE70BD5800002061
:103B7000A00500201CB517480024CDE900402346CD
:103B8000822215A1164800F057FC012801D100F04F
:103B900039FE012809D0401C1AD1202080F3118859
:103BA000BFF34F8FBFF36F8FFEE7202080F31188A4
:103BB000BFF34F8FBFF36F8F06484FF0FF312C38A4
:103BC000816201214161C460BDE81C4000F042B83F
:103BD0001CBD00008400002049444C45000000004A
:103BE0003D3000080248016B491C0163704700002A
:103BF00058000020154A106B002802D00120D06127
:103C000070470020D0611069B0FA80F0C0F11F0049
:103C10000F4900EB800051F8203073B101EB8000B8
:103C200041684968416000F10803994201D149683F
:103C300041604068C06810607047202080F31188A0
:103C4000BFF34F8FBFF36F8FFEE7000058000020D7
:103C5000A00500201CB537480168374A914207D1BA
:103C6000202080F31188BFF34F8FBFF36F8FFEE7E3
:103C700000683149491E884207D1202080F311880D
:103C8000BFF34F8FBFF36F8FFEE72C490878019089
:103C9000FF200870087800909DF800009DF8002033
:103CA00000F0F000904207D0202080F31188BFF38D
:103CB0004F8FBFF36F8FFEE79DF80000204B00F0A1
:103CC000200018700720986006E09868401E9860F1
:103CD0009DF80000400000909DF800000006F4D41C
:103CE0009868032807D0202080F31188BFF34F8FF6
:103CF000BFF36F8FFEE74FF4407098600198087033
:103D00000C482030016841F470010160016841F005
:103D100070410160FFF7A2FD00205860FCF774FAC3
:103D20000848016841F040410160FCF759FA002061
:103D30001CBD000000ED00E071C20F4100E400E096
:103D4000A800002034EF00E010B5202080F3118897
:103D5000BFF34F8FBFF36F8F00F0B2FB18B1044970
:103D60004FF080500860002080F3118810BD0000E3
:103D700004ED00E0F8B506460D461746002E11D0BA
:103D8000C5B106FB05F05030FFF7EAFB04463CB135
:103D9000224650323B46294630460094FFF751F9FF
:103DA0002046F8BD202080F31188BFF34F8FBFF36A
:103DB0006F8FFEE70020E6E770B504460D46002C45
:103DC00025D0FFF7E7FCD4E90F20216802FB0011A2
:103DD000A1600021A16321686160E06B2268216C11
:103DE000401E00FB0121E1604FF0FF3084F84400E9
:103DF00084F8450004F110008DB1FFF798FC04F140
:103E00002400FFF794FCFFF7E5FC012070BD2020A3
:103E100080F31188BFF34F8FBFF36F8FFEE72169E7
:103E20000029F0D000F04AFC0028ECD004494FF003
:103E300080500860BFF34F8FBFF36F8FE3E7000040
:103E400004ED00E02DE9FF4782B004468A461E4695
:103E50000025002C03D0BAF1000F08D011E020207B
:103E600080F31188BFF34F8FBFF36F8FFEE7206C95
:103E700038B1202080F31188BFF34F8FBFF36F8FCD
:103E8000FEE7022E0AD1E06B012807D0202080F344
:103E90001188BFF34F8FBFF36F8FFEE700F0FCFA7E
:103EA00048B9049838B1202080F31188BFF34F8FB0
:103EB000BFF36F8FFEE74FF000094FF08057DFF838
:103EC000E480FFF767FCA06BE16B884205D3022E0C
:103ED00003D0049808B325B327E032465146204664
:103EE000FFF728F8616A59B104F1240000F0E6FBFD
:103EF00068B1C8F80070BFF34F8FBFF36F8F06E053
:103F000028B1C8F80070BFF34F8FBFF36F8FFFF772
:103F100061FC012006B0BDE8F087FFF75BFC0020E4
:103F2000F8E76846FFF78AFD0125FFF753FCFFF726
:103F300059FEFFF72FFC94F94400401C01D184F88E
:103F4000449094F94500401C01D184F84590FFF756
:103F500041FC04A9684600F031FA30B12046FFF771
:103F6000C9FA00F0E9FB0020D4E72046FFF751F939
:103F700090B104F110000499FFF76EFD2046FFF7A1
:103F8000B9FA00F0D9FB00289BD1C8F80070BFF344
:103F90004F8FBFF36F8F94E72046FFF7ABFA00F027
:103FA000CBFB8EE704ED00E02DE9F047044689469F
:103FB00090461F46002C03D0B9F1000F08D011E045
:103FC000202080F31188BFF34F8FBFF36F8FFEE780
:103FD000206C38B1202080F31188BFF34F8FBFF3DE
:103FE0006F8FFEE7022F0AD1E06B012807D0202057
:103FF00080F31188BFF34F8FBFF36F8FFEE7FFF79A
:104000003FFC2020EFF3118680F31188BFF34F8F20
:10401000BFF36F8FA06BE16B884206D3022F04D0F1
:10402000002086F31188BDE8F08794F945503A46A0
:1040300049462046FEF77EFF681C04D06D1C84F8BC
:1040400045500120EDE7606A0028FAD004F1240011
:1040500000F034FB0028F4D0B8F1000FF1D00120BB
:10406000C8F80000EDE770B504460E46002C09D0F4
:10407000206C78B1202080F31188BFF34F8FBFF3FD
:104080006F8FFEE7202080F31188BFF34F8FBFF3BF
:104090006F8FFEE7206848B9A06838B1202080F310
:1040A0001188BFF34F8FBFF36F8FFEE7FFF7E8FB79
:1040B0002020EFF3118580F31188BFF34F8FBFF3FA
:1040C0006F8FA26BE06B904218D994F94500521C97
:1040D000A263411C04D0401C84F8450001200EE07E
:1040E000606A0028FAD004F1240000F0E7FA002802
:1040F000F4D0002EF2D001203060EFE7002085F3ED
:10410000118870BD2DE9F74783B004468A46002622
:10411000002C03D0BAF1000F08D011E0202080F36A
:104120001188BFF34F8FBFF36F8FFEE7206C38B15C
:10413000202080F31188BFF34F8FBFF36F8FFEE70E
:1041400000F0AAF948B9059838B1202080F3118809
:10415000BFF34F8FBFF36F8FFEE700274FF08058FC
:10416000DFF8D890FFF716FBA56BC5B15146204686
:10417000FEF7CCFE6D1EA563206950B104F110005E
:1041800000F09CFA28B1C9F80080BFF34F8FBFF34D
:104190006F8FFFF71FFB012006B0BDE8F087059881
:1041A00008B126B107E0FFF715FB0020F4E701A8EE
:1041B000FFF744FC0126FFF70DFBFFF713FDFFF7A8
:1041C000E9FA94F94400401C01D184F8447094F950
:1041D0004500401C01D184F84570FFF7FBFA05A9A2
:1041E00001A800F0EBF858B12046FFF783F900F082
:1041F000A3FA2046FFF700F80028B3D00020CBE751
:104200002046FEF7F9FF90B104F124000599FFF76D
:1042100023FC2046FFF76EF900F08EFA0028A1D1AA
:10422000C9F80080BFF34F8FBFF36F8F9AE7204626
:10423000FFF760F900F080FA94E7000004ED00E079
:104240002DE9F34383B004460025A946002C09D08C
:10425000206C78B1202080F31188BFF34F8FBFF31B
:104260006F8FFEE7202080F31188BFF34F8FBFF3DD
:104270006F8FFEE700F010F948B9049838B120209C
:1042800080F31188BFF34F8FBFF36F8FFEE70026D7
:104290004FF08057DFF82081FFF77CFAA06BC8B1A0
:1042A000401EA063206810B9FFF7C4F9A060206920
:1042B00050B104F1100000F001FA28B1C8F8007004
:1042C000BFF34F8FBFF36F8FFFF784FA012005B064
:1042D000BDE8F083049808B17DB112E0B9F1000F98
:1042E00007D0202080F31188BFF34F8FBFF36F8F6B
:1042F000FEE7FFF76FFA0020E9E701A8FFF79EFB52
:104300000125FFF767FAFFF76DFCFFF743FA94F911
:104310004400401C01D184F8446094F94500401CDD
:1043200001D184F84560FFF755FA04A901A800F00F
:1043300045F8C8B12046FFF7DDF800F0FDF920464A
:10434000FEF75AFF0028A7D0B9F1000F0AD0FFF7F7
:1043500021FA2046FEF72FFE0146A068FFF7B4FBC6
:10436000FFF738FA0020B2E72046FEF745FFE8B134
:10437000206838B9FFF70EFAA06800F053F98146BB
:10438000FFF728FA04F124000499FFF765FB2046A3
:10439000FFF7B0F800F0D0F900287FF47DAFC8F83F
:1043A0000070BFF34F8FBFF36F8F75E72046FFF7A5
:1043B000A1F800F0C1F96FE704ED00E02DE9F0414C
:1043C00005460C46002D11D0C4B1FFF7E3F9194E94
:1043D000F0686B68C11A2268571C17D02F68366ABC
:1043E000B74215D0834213D801241DE0202080F36A
:1043F0001188BFF34F8FBFF36F8FFEE7202080F34C
:104400001188BFF34F8FBFF36F8FFEE700240BE0DF
:104410008A4206D9501A20602846FFF70FFB002475
:1044200002E0002020600124FFF7D4F92046BDE817
:10443000F0810000580000202DE9FF5F8146DDE992
:104440000E788A4616469B46B000FFF789F8054667
:1044500028000AD05820FFF783F804460CB12563E2
:1044600004E02846FFF7CCF900E000248CB10020DE
:10447000CDE90240CDE900785B46324651464846D8
:10448000FEF7F0FD2046FEF7B5FC012004B0BDE8C4
:10449000F09F4FF0FF30F9E705484169002903D04C
:1044A000006B18B100207047012070470220704750
:1044B000580000200148C0687047000058000020E4
:1044C0002DE9F04100262F4F386B002808D0B8693D
:1044D000401CB861F86900B101263046BDE8F081A2
:1044E000FD686D1CFD609DB9786B006838B12020B7
:1044F00080F31188BFF34F8FBFF36F8FFEE7786BA8
:10450000B96B7963B863386A401C3862FEF772FF92
:10451000B86ADFF8748085420DD3786B006838B1D3
:10452000786BC068C468606885420ED2B86202E0E9
:104530004FF0FF30B8623868C06A00EB800058F86E
:1045400020000128C6D90126C4E7201DFFF7DCF8AA
:10455000A06A18B104F11800FFF7D6F8E06A01214B
:104560003A6981401143396100EB800008EB80001B
:10457000211DFFF702F9E06A3968C96A8842CCD385
:104580000126CAE758000020A005002070B50446A7
:104590000020002C41D0214D29688C4207D02020DA
:1045A00080F31188BFF34F8FBFF36F8FFEE7E16C8D
:1045B00071B1491EE164A36CE26A9A422DD00029D0
:1045C0002BD1201DFFF7A0F8154A012140B112E0C0
:1045D000202080F31188BFF34F8FBFF36F8FFEE76A
:1045E000E06A00EB800352F8233023B901FA00F3AC
:1045F000286998432861A06CE062C0F10700A061BF
:10460000E06A2B6981401943296100EB800002EBCD
:104610008000211DFFF7B1F8012070BD5800002077
:10462000A005002070B504460020002C39D0214D93
:10463000E16A2A68D26A914234D2A069002804DB78
:104640002868C06AC0F10700A061E06A1A4E00EB5A
:104650008000616906EB800081421ED1201DFFF7BA
:1046600053F8012150B9E06A00EB800256F822208D
:1046700022B92A6901FA00F082432A612868C06AD7
:10468000E0622A6981401143296100EB800006EB5A
:104690008000211DFFF771F802E02868C06AE0621F
:1046A000012070BDA16C2A68D26A9142F9D2012022
:1046B00070BD000058000020A00500202DE9F04149
:1046C000C068C468002C15D004F118000746FFF735
:1046D0001BF8174D2A6B0126A2B139461548FFF782
:1046E0004CF8E06A2968C96A88421ED90120EE6147
:1046F000BDE8F081202080F31188BFF34F8FBFF316
:104700006F8FFEE7201DFEF7FFFFE06A2A6906FAB9
:1047100000F111432961074900EB8000B43901EB36
:104720008000211DFFF729F8DBE70020E0E700000B
:1047300058000020540600202DE9F04100240027F5
:104740002D4D286B002807D0FFF724F8286B401E5A
:104750002863286B40B14AE0202080F31188BFF322
:104760004F8FBFF36F8FFEE7A868E8B3DFF88C8048
:1047700001261EE0D8F80C00C46804F11800FEF70A
:10478000C3FF201DFEF7C0FFE06A2A6906FA00F1A8
:1047900011432961194900EB8000B43901EB800015
:1047A000211DFEF7EAFFE06A2968C96A884200D342
:1047B000EE61D8F800000028DCD10CB1FEF71AFE3B
:1047C000AC6944B1FFF77CFE00B1EE61641E002CC1
:1047D000F8D10020A861E86930B1012708493807FD
:1047E0000860BFF34F8F00E001E0BFF36F8FFEF76B
:1047F000F1FF3846BDE8F081580000205406002043
:1048000004ED00E01CB50024FEF73AFB0D480068FB
:1048100060B10C480221001DCDE9001000234FF4C7
:10482000827209A10A48FFF707FE04460CB1204630
:104830001CBD202080F31188BFF34F8FBFF36F8F13
:10484000FEE7000094000020546D72205376630050
:10485000E1340008FEB50646089F9C460020002E65
:1048600013D0154D2C68002C0ED0009101920296A9
:10487000062919DAFFF710FE02280ED000231A4687
:1048800069462868FFF7DEFAFEBD202080F3118814
:10489000BFF34F8FBFF36F8FFEE700233A466946A1
:1048A0002868FFF7CFFAFEBD00236246694620461E
:1048B000FFF77AFBFEBD00009400002000061016F2
:1048C00000061016000000000000000001020304B2
:1048D000060708090000000001020304FC48000864
:1048E00000000020D00000009E2A0008CC490008EB
:1048F000D0000020E8350100AE2A000800000000CA
:1049000000000000000000000000000000000000A7
:104910000000000000000000010000001000000086
:10492000000000000024F40000000000000000006F
:104930000000000000000000000000000000000077
:104940000000000000000000000000000000000067
:104950000000000000000000000000000000000057
:104960000000000000000000000000000000000047
:104970000000000000000000000000000000000037
:104980000000000000000000000000000000000027
:104990000000000000000000000000000000000017
:1049A0000000000000000000AAAAAAAA000000005F
:1049B00000000000000000000000000000000000F7
:0C49C000000000000000000000000000EB
:04000005080001AD41
:00000001FF
