:020000040800F2
:10000000E833012081020008C3160008B11400087B
:10001000C1160008B1030008291F000800000000F5
:10002000000000000000000000000000C101000806
:100030000D050008000000001D020008DD17000883
:100040009B0200089B0200089B0200089B0200081C
:100050009B0200089B0200089B0200089B0200080C
:100060009B0200089B0200089B0200089B020008FC
:100070009B0200089B0200089B0200089B020008EC
:100080009B0200089B0200089B0200089B020008DC
:100090009B0200089B0200089B0200089B020008CC
:1000A0009B0200089B0200089B0200089B020008BC
:1000B000FD1800089B0200089B0200089B02000834
:1000C0009B0200089B0200089B0200089B0200089C
:1000D0009B0200081D1F00089B0200089B020008ED
:1000E0009B0200089B0200089B0200089B0200087C
:1000F0009B0200089B0200089B0200089B0200086C
:100100009B0200089B0200089B0200089B0200085B
:100110009B0200089B0200089B0200089B0200084B
:100120009B0200089B0200089B0200089B0200083B
:100130009B0200089B0200089B0200089B0200082B
:100140009B0200089B0200089B0200089B0200081B
:100150009B0200089B0200089B0200089B0200080B
:100160009B0200089B0200089B0200089B020008FB
:100170009B0200089B0200089B0200080000000090
:100180009B0200089B0200089B0200089B020008DB
:100190009B0200089B0200089B0200089B020008CB
:1001A00000000000000000009B020008DFF80CD0F7
:1001B00000F0ECF800480047A11F0008E8330120D8
:1001C0002C4B19680868B0E8F04F80F30988BFF33A
:1001D0006F8F4FF0000080F311887047000000001F
:1001E00008480068006880F308884FF0000080F33A
:1001F000148862B661B6BFF34F8FBFF36F8F00DF15
:1002000000BF00BF08ED00E0DFF80C00016841F41A
:1002100070010160704700BF88ED00E0EFF30980D6
:10022000BFF36F8F134B1A681EF0100F08BF20ED3D
:10023000108A20E9F04F106009B44FF0200080F3DD
:100240001188BFF34F8FBFF36F8F02F00BFD4FF09C
:10025000000080F3118809BC19680868B0E8F04F05
:100260001EF0100F08BFB0EC108A80F30988BFF3AE
:100270006F8F704734000020EFF305807047000057
:100280000648804706480047FEE7FEE7FEE7FEE730
:10029000FEE7FEE7FEE7FEE7FEE7FEE7A918000837
:1002A000AD0100082DE9F05F0546002092469B460F
:1002B00088460646814640241BE02846414647467C
:1002C000224600F053F853465A46C01A914110D3C3
:1002D00011461846224600F03AF82D1A67EB01083D
:1002E0004F4622460120002100F031F817EB0009AB
:1002F0004E41201EA4F10104DFDC484631462A4667
:100300004346BDE8F09F40EA01039B0703D009E0A4
:1003100008C9121F08C0042AFAD203E011F8013BF1
:1003200000F8013B521EF9D27047D2B201E000F84A
:10033000012B491EFBD270470022F6E710B5134689
:100340000A4604461946FFF7F0FF204610BD202A52
:1003500004DB203A00FA02F1002070479140C2F11C
:10036000200320FA03F3194390407047202A04DB4E
:10037000203A21FA02F00021704721FA02F3D0401E
:10038000C2F120029140084319467047064C074DC0
:1003900006E0E06840F0010394E807009847103455
:1003A000AC42F6D3FFF706FF68360008883600082F
:1003B000FEE7000010B50A88C2F30A02A2F58062C7
:1003C00002804A788B78D20842EA4312C2F30A02CA
:1003D000A2F5806242808A78CB78920942EA830251
:1003E0000B7942EA8322C2F30A02A2F5806282807C
:1003F0000A794B79520842EAC312C2F30A02A2F503
:100400008062C2804A79920902724A79C2F301126B
:100410004272CA8842810A8982814A89C2810A7BE2
:1004200002744A7B4274C989418200F0F1F90B4C95
:1004300020606168401AB0F5FA7F06D94FF4006178
:10044000074800F0D9F9206860602068A0600122A8
:10045000BDE810408021034800F0D5B924000020F9
:10046000001002400018024001681823CAB2103A76
:10047000B2FBF3F2054B6FF30901032A9B5CC365E2
:1004800000D9091D816508467047000048360008FC
:1004900010B5014600208B698A6A4FF0C07453B1D1
:1004A000B3F5005F15D072B1012A0CD0022A0AD030
:1004B000032A09D104E01AB1012A06D0022A03D185
:1004C000C96AC90100D5012010BDC96AA142FAD08C
:1004D00010BD002AF7D0012AF2D0022AF3D0032A55
:1004E000F3D010BD30B50468256825F4802525605B
:1004F000046863608368402B036803D099600068D8
:10050000C26030BD9A600068C16030BD70477047FE
:100510002DE9F041044600F07BF906465CB1002568
:1005200084F83450022084F835002068016821F0F6
:10053000010101600DE00120BDE8F08100F068F9E3
:10054000801B052805D920206065032084F835002C
:10055000F2E720680068C007F0D1226811682048DF
:100560000140D4E901031843D4E903363343184367
:1005700063691843A3691843E3691843236A18435E
:100580000843616A042903D1D4E90B1319430843D2
:10059000106020684069666A20F0070130460E430B
:1005A000012704280CD1A06A0643E06A40B1204626
:1005B000FFF76EFF20B14020606584F83570BAE720
:1005C000206846612046FFF74FFF94F85C203F21EA
:1005D00091408160656584F835700020ACE70000CB
:1005E0003F8010F070B5044690F8340000250128D3
:1005F0000CD0012084F8340094F835600020012EDE
:1006000006D084F834000225284670BD022070BD53
:10061000022684F8356060652046FFF763FF206896
:10062000016841F001010160EEE700002DE9F84F9B
:10063000DFF890B100224FF001084FF0030A4FF0AD
:100640000F090BF1040E00BF0B6808FA02F42340F7
:10065000A3426ED14D68022D01D0122D0ED1D508C6
:1006600000EB850CDCF820505607F70E09FA07F668
:10067000B5430E69BE402E43CCF820600668550095
:100680000F790AFA05FC07F0030726EA0C06AF40CB
:10069000374307604E68012E05D0022E03D0112E7D
:1006A00001D0122E0ED18768CE6827EA0C07AE4023
:1006B0003E4386604668A6430C79C4F30014944018
:1006C00034434460C4688E6824EA0C04AE40264378
:1006D000C6604C68E4006FD53B4C256845F4804506
:1006E0002560246822F0030504F480440094374C0C
:1006F0002E19D6F8084895072F0F09FA07F5AC43CD
:10070000334DA84201D100252EE0324DA84201D13F
:10071000012529E0304DA84201D1022524E02F4DCA
:10072000A84201D103251FE02D4DA84202D1042586
:100730001AE041E02B4DA84201D1052514E02A4DD5
:10074000A84201D106250FE0284DA84201D1072576
:100750000AE0274DA84201D1082505E0254DA84211
:1007600001D1092500E00A25BD402543C6F80858F7
:10077000DBF800405D464E689C43F60300D51C4301
:100780002C60DEF8004075464E689C43B60300D5E9
:100790001C432C600B4D08352C684E689C43F602B8
:1007A00000D51C432C60074D0C352C684E689C43CB
:1007B000B60200D51C432C60521C102AFFF444AF33
:1007C000BDE8F88F003C0140443802400030014051
:1007D000000002400004024000080240000C0240F9
:1007E000001002400014024000180240001C0240A9
:1007F0000020024000240240426931EA020200D196
:100800000904816170470AB1816170470904FBE7FF
:100810000148806870470000140000200248816889
:100820000278114481607047140000200B4810B515
:10083000016841F400710160016841F48061016068
:10084000016841F480710160032000F06FF800201E
:1008500000F006F800F024F8002010BD003C024033
:1008600070B50D4D04464FF47A712878B1FBF0F065
:100870000A490968B1FBF0F000F0F4FA48B9102C0D
:1008800007D200222146501E00F030F800206C6094
:1008900070BD012070BD0000140000202000002069
:1008A0000A4808B5016841F480410160006800F41D
:1008B000804000900548001F016841F080510160B0
:1008C000006800F08050009008BD000044380240ED
:1008D000002809DB00F01F0201219140400980003F
:1008E00000F1E020C0F8001170470000F0B40E4B9A
:1008F0001B680C46C3F30223C3F10705042D00D97E
:100900000425191D072901D2002300E0DB1E012662
:1009100006FA05F1491E214099409E40761E164078
:100920003143F0BC01F001BB0CED00E0064900F0E2
:10093000070208684FF6FF03184040EA0220034A06
:1009400010430860704700000CED00E00000FA055D
:100950002DE9F0470E46050065D0DFF81481D8F880
:100960000000F7B200F00F00B04207D288F8007024
:10097000D8F8000000F00F00B04254D128683D4C78
:10098000810712D5400703D5206840F4E05020606D
:100990002878000703D5206840F460402060206874
:1009A000A96820F0F000084320602878C0072DD007
:1009B000304968680839012812D0022813D003286A
:1009C00011D00968890700292DDA216821F0030177
:1009D00001432160FFF71CFF814641F2883A0EE097
:1009E00009688903EFE709688901ECE7FFF710FF61
:1009F000A0EB0901514502D90320BDE8F08720682A
:100A0000696800F00C00B0EB810FEFD1D8F800104E
:100A1000404601F00F01B14207D90770006800F0AD
:100A20000F00B04201D00120E7E72878400705D544
:100A30002068E96820F4E050084320602878000727
:100A400006D52068296920F4604040EAC100206092
:100A500000F03CF82168084AC1F30311515CC8401A
:100A6000064908600020FFF7FBFE0020C5E70000F4
:100A7000003C0240083802405036000820000020A8
:100A80000148006870470000200000200448054924
:100A900000680968044AC1F38221515CC84070476C
:100AA000200000200838024060360008044805494C
:100AB00000680968044AC1F34231515CC84070477C
:100AC000200000200838024060360008154810B5A4
:100AD000006810F00C02144813D01449042A0FD0F7
:100AE000082A0ED10F4C241F2268236802F03F020F
:100AF0005B0207D52068C0F38810A0FB010106E067
:100B0000084610BD2168C1F38811A1FB0001002334
:100B1000FFF7C8FB2168C1F30141491C4900B0FB44
:100B2000F1F010BD083802400024F400001BB700AB
:100B30002DE9F84F050076D02878DFF8F8B2BE4CE2
:100B4000C00749D0DBF800105846C1F381010129E4
:100B500008D00068C0F3810002280AD1201D006877
:100B6000400206D52068800336D568680028E2D0A8
:100B700032E06868B0F5803F10D0B0F5A02F206853
:100B800010D020F480302060206820F48020206085
:100B90006868A0B1FFF73CFE06460CE0206840F410
:100BA0008030F4E740F480202060F7E7FFF730FE64
:100BB000801B642873D820688003F7D50CE0FFF70A
:100BC00027FE064605E000BFFFF722FE801B6428D3
:100BD000F0D820688003F7D42878DFF86082800797
:100BE0004FF000093ED5DBF80010584611F00C0F0D
:100BF00009D00068C0F3810002280BD18D48001F86
:100C00000068400206D42068800715D5E8680128EE
:100C100009D111E0E868B8B10120C8F80000FFF779
:100C2000F7FD064605E002E1FFF7F2FD801B022812
:100C3000C0D820688007F7D52068296920F0F8001F
:100C400040EAC10020600DE0C8F80090FFF7E0FD29
:100C5000064604E0FFF7DCFD801B02281FD8206851
:100C60008007F7D42878000722D5724E7448696946
:100C70006C3671B101210160FFF7CAFD074604E03F
:100C8000FFF7C6FDC01B022809D830688007F7D5DA
:100C90000EE0C0F80090FFF7BBFD074605E083E0DB
:100CA000FFF7B6FDC01B02287ED830688007F7D456
:100CB0002878400768D5DFF87CA100270AF1380AB8
:100CC000DAF80000C0000BD4DAF8001041F08051CF
:100CD000CAF80010DAF80000012700F080500090F8
:100CE000584E3068C00510D4306840F480703060D1
:100CF000FFF78EFD009005E0FFF78AFD0099401A8E
:100D0000022851D83068C005F6D54A4EA868683622
:100D100001280FD00528306810D020F00100306085
:100D2000306820F004003060A868B8B1FFF770FDAB
:100D300000900FE0306840F00100F4E740F004005C
:100D40003060F7E7FFF764FD0099411A41F28830FF
:100D5000814264D830688007F4D50EE0FFF758FD73
:100D6000009007E0FFF754FD0099411A41F28830E6
:100D7000814254D830688007F4D42FB1DAF80010DB
:100D800021F08051CAF80010A869C0B3DBF8001048
:100D9000C1F3810102294AD00228484607D0C8F889
:100DA0006000FFF735FD00E039E005463AE04746D0
:100DB000C8F86000FFF72CFD064604E0FFF728FDA9
:100DC000801B02282BD820688001F7D4D5E90701C1
:100DD0000843A96A1C4A490802EB01416A6A41EAD0
:100DE0008211084395F82C1040EA01611148001F58
:100DF000016001203866FFF70BFD054605E014E0B1
:100E0000FFF706FD401B022809D820688001F7D5AE
:100E10000BE000BFFFF7FCFC401B022802D90320B7
:100E2000BDE8F88F20688001F4D40020F8E70120A5
:100E3000F6E7000008380240003802400000474250
:100E4000800E4742007000400000FFFF4FF0E0219D
:100E50000428086903D020F004000861704740F0BE
:100E60000400FAE710B5401EB0F1807F01D30120E5
:100E700010BD4FF0E02460610F21601701F055F8BC
:100E80000020A06107202061002010BD704770473E
:100E9000704770B50446006801694FF00005C9430A
:100EA000890715D4C168C943890711D4E91E0161B6
:100EB00001202077206880698007204602D0FFF754
:100EC000E7FF04E000F098F8204600F047F92577A6
:100ED00020680169C943490717D4C168C943490754
:100EE00013D46FF00401016102202077206880692B
:100EF00010F4407F204602D0FFF7CAFF04E000F064
:100F00007BF8204600F02AF9257720680169C9435B
:100F1000090716D4C168C943090712D46FF0080144
:100F20000161042020772068C0698007204602D034
:100F3000FFF7AEFF04E000F05FF8204600F00EF986
:100F4000257720680169C943C90617D4C168C94318
:100F5000C90613D46FF010010161082020772068C2
:100F6000C06910F4407F204602D0FFF791FF04E0F3
:100F700000F042F8204600F0F1F82577206801697A
:100F8000C943C90708D1C168C943C90704D1891E2B
:100F90000161204600F006F920680169C94309068D
:100FA00009D4C168C943090605D46FF08001016105
:100FB0002046FFF76BFF20680169C943490609D441
:100FC000C168C943490605D46FF04001016120465C
:100FD00000F0E9F820680169C94389060BD4C168AB
:100FE000C943890607D46FF0200101612046BDE89E
:100FF0007040FFF74CBF70BD704770B5044690F865
:101000003C000D4601280DD0012684F83C600220EA
:1010100084F83D0042B1042A18D0082A2AD00C2AAC
:101020004DD139E0022070BD206800F0F1FC20684D
:10103000816941F0080181612068816921F0040122
:101040008161206881692A69114311E0206800F0FC
:101050000FFD2068816941F4006181612068816928
:1010600021F480618161206881692A6941EA022155
:10107000816124E0206800F031FD2068C16941F001
:101080000801C1612068C16921F00401C1612068C3
:10109000C1692A69114311E0206800F053FD2068FE
:1010A000C16941F40061C1612068C16921F48061B6
:1010B000C1612068C1692A6941EA0221C16184F8DD
:1010C0003D60002084F83C0070BD10B5040003D0E2
:1010D00094F83D0010B107E0012010BD002084F815
:1010E0003C00204600F00CF8022084F83D00211D51
:1010F000206800F01BFC012084F83D00002010BD9A
:1011000010B586B0044614216846FFF715F910495A
:101110002068884219D10F48026842F00402026038
:10112000006800F004000590206888420DD14FF45B
:101130007040009002200121CDE901010321CDE999
:10114000031069460448FFF771FA06B010BD0000AD
:101150000008004040380240000C02407047000088
:1011600010B504460068012200F044FC0B492068D9
:10117000884202D00A49884203D1416C41F40041BF
:1011800041642068816801F00701062903D00168E5
:1011900041F001010160002010BD0000000001408D
:1011A000000401407047704738B501680A68D206EC
:1011B0005ED50A684968416B384A096891420AD08D
:1011C000374A914207D0354A6032914203D0344ABF
:1011D0006032914201D1202222E0304B1833DA14E0
:1011E00099421DD02E4B1833994219D02B4B78338E
:1011F000994215D02A4B7833994211D0274B92024D
:10120000303399420CD0264B3033994208D0234BCF
:101210009033994204D0224B9033994200D09201EE
:101220000B6823F001030B60416B1D4B09684833C9
:10123000994202D91A49091F05E0184BA83399426F
:1012400003D9174908390A6008E0144C134B483495
:10125000103BA14201D9DA6000E09A60426B818DB7
:1012600012685160416B09680A6842F001020A6025
:10127000816A0C48FFF79EF80B4800236A4609492B
:10128000006801F0CBFE0098012806D1074900074D
:101290000860BFF34F8FBFF36F8F38BD10600240FF
:1012A000106402407C0200200C00002004ED00E0ED
:1012B00070B5040004D094F83900002510B106E0A0
:1012C000012070BD84F83850204600F023F8242017
:1012D00084F839002068C16821F40051C1602046BB
:1012E00000F094FC2068016921F4904101612068BC
:1012F000416921F02A0141612068C16841F400512F
:10130000C160E563202084F8390084F83A000020A9
:1013100070BD000070B586B0064614216846FFF720
:101320000BF8294C33680025284902200122A342EA
:1013300031D10B6843F010030B60096801F0100114
:101340000591C021CDE900100320CDE9022007203E
:10135000049069461E48FFF769F91F4C1D4820603C
:101360004FF00060C4E901054014C4E90350656111
:10137000A561E561256220466562FFF7C9F87463DF
:10138000002203212520A663FFF7B0FA2520FFF7EE
:101390009FFA06B070BD114CA342FAD10B6843F01E
:1013A00020030B600968CDE9022001F020010591BE
:1013B0004FF48441CDE900100820049069460848A4
:1013C000FFF734F9E5E7000000100140443802401F
:1013D000000402404064024010020020001401405A
:1013E0000018024030B40368DC6844F01004DC608C
:1013F00030BC00F0CFBB2DE9F843044690F839002B
:101400001F4616460D46202850D1A5B19EB194F82E
:10141000380001284AD0012084F838004FF0000835
:10142000C4F83C80212084F83900FFF7F1F9A68444
:101430008146E68426E00120BDE8F883E08C401E6A
:10144000E084A0684B46B0F5805F4FF000024FF09B
:1014500080012046009703D000F02EFDE8B90DE092
:1014600000F02AFDC8B928882168C0F30800486048
:10147000206908B16D1C05E0AD1C03E0216815F87A
:10148000010B4860E08C0028D8D14B460022402157
:101490002046009700F010FD08B10320CCE7202083
:1014A00084F8390084F838800020C5E70220C3E7BB
:1014B000FEE70000054C4FF47A7506212046FFF741
:1014C0009BF9284601F0D0FAF7E700000018024027
:1014D0000D4808B5016841F48001016000680022F0
:1014E00000F48000009011463A20FFF7FFF93A20FF
:1014F000FFF7EEF9002211464520FFF7F7F9BDE8A6
:1015000008404520FFF7E4B93038024070B586B096
:1015100014216846FEF710FF2A480024016841F0B4
:1015200080010160016801F080010591016841F0CE
:1015300040010160016801F040010591016841F03E
:1015400010010160016801F010010591016841F08E
:1015500008010160016801F008010591016841F08E
:1015600004010160016801F004010591016841F086
:1015700002010160016801F002010591016841F07A
:10158000010101600068104E00F001004FF4FF758A
:101590000590002229463046FFF735F900950125D0
:1015A000CDE90154694630460394FFF73FF8E8025D
:1015B0000090CDE90154694604480394FFF736F8DA
:1015C00006B070BD303802400018024000100240E2
:1015D00010B51F4888B01D49016053210024C0E99F
:1015E000011444F61F61C0E903148461FFF76DFD27
:1015F0006020009042F20F70CDE90104002269469C
:1016000013480494FFF7F9FC042269461048FFF7D9
:10161000F4FC082269460E48FFF7EFFC0C226946ED
:101620000B48FFF7EAFC00210948FFF799FD042168
:101630000748FFF795FD08210548FFF791FD0C21AC
:101640000348FFF78DFD08B010BD00000008004002
:10165000EC000020094808494FF480620160084905
:10166000416000218160C0E903120C22C0E905211C
:10167000C161FFF71DBE0000001001409001002075
:10168000A08601000D4810B50B4901604FF4E1310F
:101690004160002181600C22C160C0E904128161B7
:1016A000C161FFF705FE05496422A439BDE8104079
:1016B00001F16400FFF796BE00140140D001002044
:1016C000FEE770470F4D104C86B00522694628682A
:1016D00001F002FD0028F8D0BDF800002080BDF820
:1016E00002006080BDF80400A080BDF80600E08024
:1016F0009DF8080020819DF80900608101F078F8CC
:10170000E3E700000C000020700200201CB5FFF78A
:101710008DF800F06FF8FFF7F9FEFFF759FFFFF7BC
:10172000D7FEFFF797FFFFF7ADFFA82000F01CFCE6
:1017300006490120CDE900010023802204A10748C9
:1017400001F0A0FDBDE81C4001F04CBA10000020E3
:1017500053746172745F7461736B000061170008E9
:101760001CB501F0ADF800221421022001F038FB75
:101770000E490023802208600D490420CDE90001B4
:101780000CA10F4801F07EFD0E490320CDE90001B8
:10179000002332220CA10F4801F074FD0E480068AE
:1017A00001F088F9BDE81C4001F0AAB80C00002047
:1017B0003000002052656D6F74655F7461736B005B
:1017C000C5160008A80000204C6564315F74617381
:1017D0006B000000B51400081000002010B501F0E7
:1017E0007DFD012801D001F0E5FABDE81040FFF7CA
:1017F00015B8000030B593B030216846FEF79CFD67
:1018000014210CA8FEF798FD25480025016841F039
:1018100080510160006800F08050119021480168FB
:1018200041F4404101600068022400F440401190FE
:1018300001200090000401908001CDE906400620BF
:101840000890A820CDE9090404200B906846FFF712
:101850006FF908B1FEF75BFE0CA90F2081E831009B
:101860004FF4A0500F904FF48050109005210CA819
:10187000FFF76EF808B1FEF74AFEFFF701F94FF4E3
:101880007A71B0FBF1F0FFF7EDFA0420FFF7DEFA12
:1018900000221146501EFFF729F813B030BD00009A
:1018A00040380240007000401048016841F4700167
:1018B00001600F48016841F0010101600C4A0021FC
:1018C0000832116002680B4B1A400260031D0A4A7D
:1018D0001A60026822F48022026005480C30016020
:1018E00002495806803908607047000088ED00E022
:1018F00000380240FFFFF6FE1030002410B5084803
:10190000FFF7C7FA074C2078C82801D2401C04E032
:1019100006210548FEF770FF0020207010BD000072
:10192000AC0000200000002000180240F0B5026862
:10193000254C264D264E274F274B4FF0804CA0427A
:1019400009D0604507D0A84205D0B04203D0B842C4
:1019500001D0984204D122F0700E4A6842EA0E0289
:10196000A0421BD0604519D0A84217D0B04215D074
:10197000B84213D0984211D0184DA8420ED0184D3D
:10198000A8420BD0174DA84208D0174DA84205D049
:10199000164DA84202D0164DA84203D122F440753C
:1019A000CA682A434D6922F080022A4302608A688D
:1019B000C2620A688262A04201D0984201D10969DC
:1019C000016301214161F0BD0000014000040040BD
:1019D00000080040000C00400004014000400140AD
:1019E000004401400048014000180040001C004035
:1019F0000020004010B501F01F030121046A994046
:101A00008C430462016A9A401143016210BD0000D8
:101A1000F0B5026A22F001020262036A4268846938
:101A2000124E24F073050C682C4323F002058B68DA
:101A30002B430D4DA84201D0B04205D123F0080739
:101A4000CB683B4323F00403A84201D0B04205D148
:101A50004D6922F4407215438A692A4342608461C9
:101A6000496841630362F0BD000001400004014089
:101A7000F0B5026A22F010020262026A43688469C9
:101A80000D6824F4E64444EA05248D6822F020021F
:101A900042EA05120F4D104EA84201D0B04206D1C5
:101AA000CF6822F0800242EA071222F04002A842E8
:101AB00001D0B04207D14D6923F4406343EA850366
:101AC0008D6943EA850343608461496881630262EA
:101AD000F0BD00000000014000040140F0B5026AC2
:101AE00022F480720262026A4368C46922F40072BE
:101AF00024F073050C68124E2C438D6842EA0522CF
:101B00000E4DA84201D0B04206D1CF6822F4006247
:101B100042EA072222F48062A84201D0B04207D1F3
:101B20004D6923F4405343EA05138D6943EA0513D5
:101B30004360C4614968C1630262F0BD00000140B6
:101B40000004014030B5026A22F480520262046A45
:101B50004268C3690D6823F4E64343EA05238D68B0
:101B600024F4005444EA0534084DA84202D0084D3C
:101B7000A84204D14D6922F4804242EA85124260B3
:101B8000C36149680164046230BD00000000014087
:101B900000040140F8B5044690F83A00202833D1FB
:101BA00079B372B394F8380001282DD0012084F85D
:101BB0003800A162A2850025E563222084F83A005E
:101BC000606B134605650846666B21680246304621
:101BD000091DFEF707FD206801684168009184F83F
:101BE0003850C16841F48071C1602068416941F09A
:101BF000010141612068416941F0400141610020DB
:101C0000F8BDFFE70120FBE70220F9E72DE9F041ED
:101C1000044600680169E26821F440511143016102
:101C20002169A068E2690843616911432268084399
:101C3000D16849F20C6399430143D160206841693E
:101C4000A26921F4407111434161E2696425B2F552
:101C5000004F9748974922684FF032083FD08A4298
:101C600001D082427CD1FEF721FF00EBC00101EBE5
:101C7000001061688900B0FBF1F6FEF717FF00EB7A
:101C8000C00101EB001061688900B0FBF1F0B0FB0E
:101C9000F5F06FF01801484306EB800108EB0110E6
:101CA000B0FBF5F000F0F006FEF700FF00EBC0011E
:101CB00001EB001061688900B0FBF1F0B0FBF5F0BA
:101CC00006EB0016FEF7F2FE00EBC00101EB001080
:101CD00061688900B0FBF1F7FEF7E8FED2E08A42C6
:101CE00001D082423DD1FEF7E1FE00EBC00101EBE5
:101CF000001061684900B0FBF1F0B0FBF5F006019F
:101D0000FEF7D4FE00EBC00101EB00106168490052
:101D1000B0FBF1F7FEF7CAFE00EBC00101EB0010CB
:101D200061684900B0FBF1F0B0FBF5F06FF018010D
:101D3000484307EB800108EBC100B0FBF5F000F071
:101D4000F80006EB4006FEF7B1FE00EBC00101EB28
:101D5000001061684900B0FBF1F7FEF7A7FE3CE018
:101D600055E0FEF793FE00EBC00101EB0010616847
:101D70004900B0FBF1F0B0FBF5F00601FEF786FE7E
:101D800000EBC00101EB001061684900B0FBF1F706
:101D9000FEF77CFE00EBC00101EB0010616849001A
:101DA000B0FBF1F0B0FBF5F06FF01801484307EB22
:101DB000800108EBC100B0FBF5F000F0F80006EB85
:101DC0004006FEF763FE00EBC00101EB0010616806
:101DD0004900B0FBF1F7FEF759FE00EBC00101EB43
:101DE000001061684900B0FBF1F0B0FBF5F06FF056
:101DF0001801484307EB800108EBC100B0FBF5F088
:101E000000F00700216830448860BDE8F081FEF7EB
:101E10003DFE00EBC00101EB001061688900B0FBE2
:101E2000F1F6FEF733FE00EBC00101EB0010616834
:101E30008900B0FBF1F0B0FBF5F06FF018014843FA
:101E400006EB800108EB0110B0FBF5F000F0F006A6
:101E5000FEF71CFE00EBC00101EB00106168890079
:101E6000B0FBF1F0B0FBF5F006EB0016FEF70EFE4E
:101E700000EBC00101EB001061688900B0FBF1F7D5
:101E8000FEF704FE00EBC00101EB00106168890061
:101E9000B0FBF1F0B0FBF5F06FF01801484307EB31
:101EA000800108EB0110B0FBF5F000F00F00A9E78E
:101EB00000140140001001402DE9F04198461746FA
:101EC0000E460446069D1DE0681C1BD02DB1FEF792
:101ED0009FFCA0EB0800A84214D92068C16821F437
:101EE000D071C1602068416921F001014161202069
:101EF00084F8390084F83A00002084F83800032080
:101F0000BDE8F0812068006836EA000004D00020B7
:101F1000B842D9D00020F3E70120F9E70148FFF7E4
:101F200043B9000090010020FEE70907090E0028D0
:101F300004DB00F1E02080F80014704700F00F008F
:101F400000F1E02080F8141D704702E008C8121F5D
:101F500008C1002AFAD170477047002001E001C192
:101F6000121F002AFBD1704710B504460420FEF76B
:101F70006DFF0A484FF47A7114FB01F101224460AD
:101F800002804FF0E020026942F0020202614161EA
:101F9000016941F00101016110BD00000400002051
:101FA00010B5FFF7B3FB002010BD00002DE9F04194
:101FB000184C0F460546E6682068001D00F03AFC04
:101FC00038B9206890F82C1001208840216981439D
:101FD0002161681C07D137B12168BDE8F0410E4886
:101FE000091D00F060BC20683544B5424560216899
:101FF00005D2A06BBDE8F041091D00F03CBC606B50
:10200000091D00F038FCA06A854200D2A562BDE837
:10201000F081000034000020AC0300202DE9F041E5
:10202000054600F04DFC2E4CA068401CA0602068C6
:102030002C4F10B1606940B32DE02560A0680128E5
:1020400029D1002606EB860007EB800000F005FC96
:10205000761C072EF6D323488C3000F0FEFB214877
:10206000A03000F0FAFB1F48B43000F0F6FB1D482A
:10207000C83000F0F2FB1B48DC3000F0EEFB1948E2
:102080008C3060631430A06305E02068E96AC06AA0
:10209000884200D82560606A401C60622864E96A52
:1020A0000120226988401043206101EB810007EB89
:1020B0008000291D00F0F7FB00F022FC6069002879
:1020C0000CD02068E96AC06A884207D206494FF0FE
:1020D00080500860BFF34F8FBFF36F8FBDE8F08172
:1020E00034000020D002002004ED00E010B500F024
:1020F000E7FB0E4C2068A0B90D4800F0AEFB0C4881
:10210000143000F0AAFB0A48E0601430206100227D
:102110000C210A2000F064FE206010B105A100F03F
:102120006DFCBDE8104000F0EBBB0000700000202B
:10213000C0030020546D72510000000030B4026CE6
:102140000B46002A0BD0C1681144C1608468A142CB
:1021500001D30168C16030BC1846FEF7D4B830BC6A
:1021600070472DE9F041856B174604460026026C46
:1021700082B1C7B1E068FEF7C6F8E168206C091AC1
:10218000E1602268914202D2A168081AE060022F41
:1021900016D017E02068A8B9A06801F017F9064624
:1021A0000020A0600EE06068FEF7ADF8216C60686A
:1021B00008446060A168884204D32068606001E040
:1021C00005B16D1E6D1CA5633046BDE8F08110B5EC
:1021D0000446006B00F0A8FB2046BDE8104000F06C
:1021E000A3BB000010484FF49631420706D0C01D33
:1021F0000D4920F00700411AC1F596310B4A002322
:102200000144C2E900030839103A21F007011160C6
:102210004B600B600B1AC0E9001393604FF0004055
:102220005360D06070470000E8030020A000002049
:102230000C4E0D4C12E000BF00F042FBF068C56888
:10224000281D00F0F7FAA068401EA0606068401EDC
:10225000606000F055FB2846FFF7B9FF6068002872
:10226000FCD0E9E798030020340000202DE9F05F5E
:102270008846DDE90B941546834691009A460A9EEE
:10228000A522206BFEF751F86FF00301206B01EBE4
:102290008501084420F00707780707D0202080F345
:1022A0001188BFF34F8FBFF36F8FFEE70025B8F1A2
:1022B000000F0FD05FF00000221818F8001082F80D
:1022C000341018F8001011B1401C0A28F4D384F817
:1022D0003D5001E084F83450072E00D30626E66214
:1022E000C4E91265201D00F0C3FA04F1180000F0E3
:1022F000BFFA2461C6F107006462A061256584F815
:10230000545052465946384600F052FA2060B9F10E
:10231000000F01D0C9F80040BDE8F09F30B5114969
:1023200000E011460A688242FBD34B685C18844285
:1023300003D1406818444860084643681C1894421A
:1023400009D1084C103C2468A24209D052681A44B2
:1023500042600A6812680260814200D0086030BDA5
:102360000460F9E7A000002070B5002441600B4D27
:102370000061914206D8D11A8269914206D2011DAC
:10238000286907E09A4203D2994201D3012403E06D
:10239000011DE86800F06FFA204670BD7000002053
:1023A00010B5044600F08CFAA06B28B15FF0000471
:1023B00000F0A6FA204610BD0124F9E730B587B039
:1023C000394D67E00498002864DB069C606910B111
:1023D000201D00F02FFA03A800F0D8F80246049858
:1023E0000A2857D2DFE800F00505052D334A050518
:1023F0002D3394F8280040F0010084F82800059956
:10240000A069059B01442046FFF7AEFF68B3216A2F
:102410002046884794F8280040073BD500200090CC
:102420000598A169002342181946204601F0DCF8FE
:10243000D8B9202080F31188BFF34F8FBFF36F8F7F
:10244000FEE714F8280F20F00100207022E094F835
:10245000280040F0010084F828000598A06128B108
:10246000811813462046FFF77FFF13E0202080F3FA
:102470001188BFF34F8FBFF36F8FFEE794F82800EA
:10248000810703D4204600F04FFA03E020F001005A
:1024900084F82800002204A9286800F01DFE002806
:1024A00090D107B030BD0000700000202DE9FC4144
:1024B0000F46054600F0CEFB01A800F067F8044681
:1024C000019818B101F008F8BDE8FC81254EAFB1C4
:1024D00030690068D0B30027291B3A46306800F005
:1024E000A1FA00F0F9FF0028EED11F494FF080500B
:1024F0000860BFF34F8FBFF36F8FE5E7A542EBD8BE
:1025000000F0EAFFF0682746C068C468201D00F0AC
:1025100091F994F82800410719D5A0692B46411973
:102520003A462046FFF720FFA8B1002003460146A7
:1025300000902A46204601F057F860B9202080F329
:102540001188BFF34F8FBFF36F8FFEE707E020F0D6
:10255000010084F82800216A20468847B4E7012753
:10256000BAE700007000002004ED00E00648416B6F
:10257000096829B1416BC968C968496881627047B7
:102580004FF0FF31FAE700003400002070B5054637
:1025900000F0B2FE064E0446B068844203D200F05A
:1025A00009F8012000E0002028602046B46070BDDA
:1025B00070000020F8B5194D20E0C068C4680668B6
:1025C000201D00F037F9216A2046884794F828003A
:1025D000400713D5A0693044B04206D92461606039
:1025E000211DE86800F047F908E000200346014695
:1025F00000903246204600F0F7FF38B1E8680168E5
:102600000029DAD12969C5E90310F8BD202080F33B
:102610001188BFF34F8FBFF36F8FFEE7700000206C
:1026200008484068401C4FF0200080F3118804D017
:10263000BFF34F8FBFF36F8FFEE7BFF34F8FBFF333
:102640006F8FFEE784000020074CE068016841B10D
:10265000C0680021D0F80000FFF728FFFFF7AEFEAA
:10266000F3E701210020F7E7700000202DE9F04199
:10267000044600F025F994F9455004F1240609E0D8
:10268000606A48B1304600F0EDFE08B100F070FA23
:102690006D1E6DB2002DF3DC4FF0FF3684F84560FF
:1026A00000F02EF900F00CF994F9445004F11007F1
:1026B00009E0206948B1384600F0D4FE08B100F0C6
:1026C00057FA6D1E6DB2002DF3DC84F84460BDE84E
:1026D000F04100F015B900002DE9F0410546002752
:1026E00000F0B8FA314E306808B9FFF77BFDF068AA
:1026F00005424BD1C5B3083568070ED005F0070079
:10270000C0F108000544680707D0202080F3118835
:10271000BFF34F8FBFF36F8FFEE72DB37068854215
:1027200034D82248103001460C6801E020460C469F
:102730006168A94202D221680029F7D131688C4230
:1027400024D007682168016060680837411B1029A0
:102750000FD96019420708D0202080F31188BFF3F9
:102760004F8FBFF36F8FFEE710E041606560FFF7AA
:10277000D5FD61687068401A7060B268904200D2FE
:10278000B060F06801430020C4E9000100F0A4FE3D
:10279000780707D0202080F31188BFF34F8FBFF355
:1027A0006F8FFEE73846BDE8F08100009000002002
:1027B00010B5031F4FF080741C601B1F21F0010136
:1027C0001960191F044B0B6014390A60091F6FF060
:1027D000020244380A6010BD2126000801B50A2310
:1027E000012269460148FEF706FE08BDD00100201F
:1027F00070B50320FFF7F2FFFC20FFF7EFFF0C4D51
:10280000002400BF15F81400FFF7E8FF35F81400A6
:10281000C0F30720FFF7E2FF641CE4B2062CF1D3FB
:10282000FC20FFF7DBFFBDE870400320FFF7D6BFB9
:1028300070020020D0E9013201699A60D0E90123D9
:102840005A604A68824201D182684A60002202616D
:102850000868401E08600868704700F108014FF0E2
:10286000FF32C0E90112C1600161002101607047BF
:1028700000210161704730B50B685A1C02D000F18D
:10288000080202E0026904E02246546825689D427D
:10289000FAD953684B6099608A6051600861016899
:1028A000491C016030BD42684A6093688B60936840
:1028B0005960916008610168491C0160704700001F
:1028C000202080F31188BFF34F8FBFF36F8F0A4929
:1028D0004868401C486001280CD10848006810F086
:1028E000FF0F07D0202080F31188BFF34F8FBFF375
:1028F0006F8FFEE7704700008400002004ED00E0C9
:102900000849486828B1401E486001D180F3118809
:102910007047202080F31188BFF34F8FBFF36F8F74
:10292000FEE700008400002070B5002827D0144D79
:10293000A0F108046168E868014207D1202080F313
:102940001188BFF34F8FBFF36F8FFEE722683AB154
:10295000202080F31188BFF34F8FBFF36F8FFEE706
:102960008143616000F076F96068696808446860D6
:102970002046FFF7D3FCBDE8704000F0ADBD70BD50
:10298000900000204FF0E0200021016181610549A5
:102990004FF47A720968B1FBF2F1491E41610721D7
:1029A000016170472000002010B5FDF765FC11495A
:1029B00010280ED300F1E02090F8F0030A7890423E
:1029C00007D2202080F31188BFF34F8FBFF36F8FA2
:1029D000FEE709480068896800F4E060884207D98A
:1029E000202080F31188BFF34F8FBFF36F8FFEE776
:1029F00010BD0000840000200CED00E010B5084B75
:102A0000002200BF53F832401CB1521C082AF9D3EF
:102A100010BD43F8321003EBC201486010BD000046
:102A20009002002070B515460E460446FFF748FF99
:102A300094F944100020491C01D184F8440094F911
:102A40004510491C01D184F84500FFF759FFA06BE0
:102A500028B92A46314604F1240000F0A7F82046A0
:102A6000BDE87040FFF702BE10B5020014D00F4859
:102A7000006B38B1202080F31188BFF34F8FBFF374
:102A80006F8FFEE700F0E6F800211046FFF78EFAA0
:102A900000F022FD002807D105494FF08050086062
:102AA000BFF34F8FBFF36F8F10BD000034000020C5
:102AB00004ED00E070B50546FFF702FF254C05B9AF
:102AC0002568281DFFF7B6FE58B9E86A224A00EBD0
:102AD000800152F8211021B90121814020698843E9
:102AE0002061A86A18B105F11800FFF7A3FE606A1B
:102AF000401C60622068854208D11748291DC830F3
:102B0000FFF7D1FE6068401C606007E0A068401ECF
:102B1000A0602846FFF75BFBFFF728FDFFF7F0FEFC
:102B20006069002814D02068854211D1206B38B12B
:102B3000202080F31188BFF34F8FBFF36F8FFEE724
:102B400006494FF080500860BFF34F8FBFF36F8F7F
:102B500070BD000034000020D002002004ED00E031
:102B600002490A6A0260C968416070473400002067
:102B700001490120C86170473400002010B50C469F
:102B800050B1094909681831FFF775FE2046BDE8C4
:102B900010400121FFF70ABA202080F31188BFF30B
:102BA0004F8FBFF36F8FFEE73400002070B51446DF
:102BB0000D4668B10A4909681831FFF774FE0CB177
:102BC0004FF0FF3521462846BDE87040FFF7EEB9CB
:102BD000202080F31188BFF34F8FBFF36F8FFEE784
:102BE000340000201CB517480024CDE900402346DE
:102BF000822215A1164800F045FB012803D100F000
:102C0000CDFC012809D0401C1AD1202080F3118866
:102C1000BFF34F8FBFF36F8FFEE7202080F3118843
:102C2000BFF34F8FBFF36F8F06484FF0FF312C3843
:102C3000816201214161C460BDE81C4000F040B8E0
:102C40001CBD00006000002049444C45000000000D
:102C5000312200080248016B491C016370470000E3
:102C6000340000201448016B11B10121C16170478B
:102C70000021C1610169B1FA81F1C1F11F0101EBCC
:102C800081020E4951F822306BB101EB820101F152
:102C900008034A6852684A609A4201D152684A6001
:102CA000D16801607047202080F31188BFF34F8FF7
:102CB000BFF36F8FFEE7000034000020D002002039
:102CC0001CB537480168374A914207D1202080F36C
:102CD0001188BFF34F8FBFF36F8FFEE70068314954
:102CE000491E884207D1202080F31188BFF34F8FFF
:102CF000BFF36F8FFEE72C4908780190FF20087022
:102D000008788DF800009DF800009DF8002000F084
:102D1000F000904207D0202080F31188BFF34F8F3E
:102D2000BFF36F8FFEE79DF80000204B00F02000FE
:102D300018700720986005E09DF8002052008DF87B
:102D40000020401E9DF800201206F5D4986003284C
:102D500007D0202080F31188BFF34F8FBFF36F8F10
:102D6000FEE74FF440709860019808700C482030DE
:102D7000016841F470010160016841F07041016037
:102D8000FFF700FE00205860FDF73EFA0848016892
:102D900041F040410160FDF723FA00201CBD000016
:102DA00000ED00E071C20F4100E400E0840000206B
:102DB00034EF00E010B5202080F31188BFF34F8F6F
:102DC000BFF36F8F00F09EFA18B104494FF08050A6
:102DD0000860002080F3118810BD000004ED00E0C1
:102DE0002DE9F04117460E46050016D0EEB105FB61
:102DF00006F05030FFF770FC04000CD004F15000D6
:102E0000AEB12060C4E90F562046012100F012F84F
:102E1000204684F84C70BDE8F081202080F31188B2
:102E2000BFF34F8FBFF36F8FFEE70020E1E7246011
:102E3000E8E7000070B50D46040025D0FFF740FD1F
:102E4000D4E90F20216802FB0011A1600021A163D9
:102E5000216861600A46D4E90F01401E00FB012190
:102E6000E16021464FF0FF3001F8440F487004F153
:102E700010008DB1FFF7F1FC04F12400FFF7EDFC29
:102E8000FFF73EFD012070BD202080F31188BFF3C5
:102E90004F8FBFF36F8FFEE721690029F0D000F05C
:102EA000E1FA0028ECD004494FF080500860BFF3ED
:102EB0004F8FBFF36F8FE3E704ED00E02DE9FF478D
:102EC00082B01D468A464FF00008040003D0BAF1D4
:102ED000000F08D011E0202080F31188BFF34F8F3E
:102EE000BFF36F8FFEE7206C38B1202080F311888C
:102EF000BFF34F8FBFF36F8FFEE7022D0AD1E06B58
:102F0000012807D0202080F31188BFF34F8FBFF333
:102F10006F8FFEE700F0E2F93F4F4FF000094FF0EE
:102F2000805648B9049838B1202080F31188BFF347
:102F30004F8FBFF36F8FFEE7FFF7C2FCA06BE16B13
:102F4000884207D3022D05D00498D0B1B8F1000F04
:102F50001AD01EE02A4651462046FFF702F9616A60
:102F600019B104F1240000F07DFA20B13E60BFF3F6
:102F70004F8FBFF36F8FFFF7C3FC012006B0BDE892
:102F8000F087FFF7BDFC22E06846FFF7E9FD4FF050
:102F90000108FFF7B5FCFFF75DFEFFF791FC94F920
:102FA0004400401C01D184F8449094F94500401C31
:102FB00001D184F84590FFF7A3FC04A9684600F00E
:102FC00027F930B12046FFF751FB00F085FA0020C9
:102FD000D4E7FFF775FCA06BE16B884213D1FFF7D4
:102FE0008FFC04F110000499FFF7C8FD2046FFF79D
:102FF0003DFB00F071FA00289ED13E60BFF34F8F79
:10300000BFF36F8F98E7FFF77BFC2046FFF72EFB9F
:1030100000F062FA90E7000004ED00E02DE9F047CF
:103020001F4690468946040003D0B9F1000F08D02E
:1030300011E0202080F31188BFF34F8FBFF36F8F13
:10304000FEE7206C38B1202080F31188BFF34F8F4A
:10305000BFF36F8FFEE7022F0AD1E06B012807D084
:10306000202080F31188BFF34F8FBFF36F8FFEE7EF
:10307000FFF79AFC2020EFF3118680F31188BFF34D
:103080004F8FBFF36F8FA06BE16B884206D3022F87
:1030900004D0002086F31188BDE8F08794F94550EC
:1030A0003A4649462046FFF75CF8681C04D06D1C80
:1030B00084F845500120EDE7606A0028FAD004F159
:1030C000240000F0CFF90028F4D0B8F1000FF1D0BF
:1030D0000121C8F80010EDE72DE9F747002683B07D
:1030E0008A46040003D0BAF1000F08D011E0202076
:1030F00080F31188BFF34F8FBFF36F8FFEE7206C13
:1031000038B1202080F31188BFF34F8FBFF36F8F4A
:10311000FEE700F0E3F8DFF8F4804FF000094FF02D
:10312000805748B9059838B1202080F31188BFF343
:103130004F8FBFF36F8FFEE7FFF7C2FBA56BC5B1E3
:1031400051462046FEF7FAFF6D1EA563206950B177
:1031500004F1100000F086F928B1C8F80070BFF340
:103160004F8FBFF36F8FFFF7CBFB012006B0BDE899
:10317000F087059808B11EB106E0FFF7C1FB27E014
:103180006846FFF7EDFC0126FFF7BAFBFFF762FD8B
:10319000FFF796FB94F94400401C01D184F8449059
:1031A00094F94500401C01D184F84590FFF7A8FB35
:1031B00005A9684600F02CF8002820460AD0FFF741
:1031C00055FA00F089F92046FFF7EAF80028B3D055
:1031D0000020CBE7FFF7E4F890B104F12400059953
:1031E000FFF7CCFC2046FFF741FA00F075F9002804
:1031F000A2D1C8F80070BFF34F8FBFF36F8F9BE76A
:103200002046FFF733FA00F067F995E704ED00E098
:103210002DE9F0410C46050011D0C4B1FFF750FB79
:10322000174BDA686E682068911B471C17D02F680F
:103230001B6A9F4219D0964217D8012410E0202023
:1032400080F31188BFF34F8FBFF36F8FFEE720200D
:1032500080F31188BFF34F8FBFF36F8FFEE7002419
:10326000FFF74EFB2046BDE8F081884205D9401AA1
:1032700020602846FFF774FCF1E700202060DCE7BF
:10328000340000202DE9FF5F8346DDE90E87994673
:1032900016468A469000FFF71FFA05001AD05820FC
:1032A000FFF71AFA040012D025630021CDE902418C
:1032B000CDE900874B46324651465846FEF7D6FFC9
:1032C0002046FEF7ABFE012004B0BDE8F09F284683
:1032D000FFF72AFB4FF0FF30F6E700000548416991
:1032E00019B1006B18B1002070470120704702200F
:1032F00070470000340000200148C068704700009B
:10330000340000202DE9F0412E4C0027206B40B105
:10331000A069401CA061E06900B101273846BDE802
:10332000F081E668761CE66013D1606B006838B106
:10333000202080F31188BFF34F8FBFF36F8FFEE71C
:10334000606BA16B6163A063206A401C2062FFF781
:103350000DF9A06ADFF87080864209D3606B0068BF
:1033600080B1606BC068C568686886420DD2A06293
:103370002068C06A00EB800158F821000128CAD9F2
:103380000127C8E74FF0FF30F1E7281DFFF752FA99
:10339000A86A18B105F11800FFF74CFAE86A012194
:1033A000226981401143216100EB800108EB81001B
:1033B000291DFFF778FAE86A2168C96A8842CDD3E7
:1033C0000127CBE734000020D002002070B50400B4
:1033D0004FF0000140D0214D2868844207D02020C2
:1033E00080F31188BFF34F8FBFF36F8FFEE7E06C60
:1033F00038B1401EE064A36CE26A9A422CD040B11E
:103400002AE0202080F31188BFF34F8FBFF36F8F26
:10341000FEE7201DFFF70EFA114A012150B9E06ABC
:1034200000EB800352F8233023B92B6901FA00F036
:1034300083432B61A06CE062C0F10700A061E06AE9
:103440002B6981401943296100EB800002EB800069
:10345000211DFFF728FA0121084670BD3400002025
:10346000D00200202DE9F041C068C468ACB104F17D
:1034700018000746FFF7DEF9154D286B0126A0B1AD
:1034800039461448FFF70FFAE06A2968C96A88428A
:103490001CD90120EE61BDE8F081202080F3118865
:1034A000BFF34F8FBFF36F8FFEE7201DFFF7C2F909
:1034B000E16A2A6906FA01F01043286101EB8100F4
:1034C0000449B43901EB8000211DDBE70020E2E76D
:1034D00034000020840300202DE9F0472C4D002407
:1034E0002746286B38B1FFF7EBF9286B401E28639D
:1034F000286B40B146E0202080F31188BFF34F8F46
:10350000BFF36F8FFEE7A968224E0120D1B3A6F169
:10351000B40980463068E8B1F068C46804F1180066
:10352000FFF788F9201DFFF785F9E06A2A6908FA94
:1035300000F11143296100EB800109EB8100211D9D
:10354000FFF7B1F9E06A2968C96A8842E2D3C5F891
:103550001C80DFE70CB1FFF709F8AC6944B14646BF
:10356000FFF7D0FE00B1EE61641EF9D10020A86122
:10357000E86938B10849012738070860BFF34F8F61
:10358000BFF36F8FFFF7BCF93846BDE8F087000046
:10359000340000208403002004ED00E01CB5FEF799
:1035A000A5FD0D48006868B10B490220091DCDE951
:1035B000000100234FF4827208A10A48FFF762FE5F
:1035C000002807D1202080F31188BFF34F8FBFF36D
:1035D0006F8FFEE71CBD000070000020546D72204C
:1035E0005376630049260008FEB51E4613460200C6
:1035F000089D4FF0000014D0124C2768002F0FD008
:10360000CDE900130292062915DAFFF767FE0228BA
:103610004FF000030DD0002269462068FFF74EFCF2
:10362000FEBD202080F31188BFF34F8FBFF36F8F53
:10363000FEE72A46F0E70023324669463846FFF7A0
:10364000EDFCFEBD700000200006101600061016EE
:103650000000000000000000010203040607080942
:10366000000000000102030488360008000000206A
:10367000AC0000004A1F000834370008AC000020EE
:103680003C3301005A1F0008000000000000000049
:103690000000000000000000000000000100000029
:1036A00010000000000000000024F40000000000F2
:1036B000000000000000000000000000000000000A
:1036C00000000000000000000000000000000000FA
:1036D00000000000000000000000000000000000EA
:1036E00000000000000000000000000000000000DA
:1036F00000000000000000000000000000000000CA
:1037000000000000000000000000000000000000B9
:10371000AAAAAAAA00000000000000000000000001
:103720000000000000000000000000000000000099
:043730000000000095
:04000005080001AD41
:00000001FF
